:020000040800F2
:10000000880500209D010008232800080524000819
:10001000212800084D040008FD3000080000000001
:10002000000000000000000000000000F92A0008A5
:10003000970400080000000045280008FD2A000879
:10004000B7010008B7010008B7010008B7010008B0
:10005000B7010008B7010008B7010008B7010008A0
:10006000B7010008B7010008B7010008B701000890
:10007000B7010008B7010008510400085D0400083A
:10008000B7010008B70100088D020008B701000899
:10009000B7010008B7010008B7010008C70400084D
:1000A000B7010008B7010008B7010008B701000850
:1000B000B7010008B7010008B7010008B701000840
:1000C000B7010008B7010008B7010008B701000830
:1000D000B7010008F1300008B7010008B7010008B7
:1000E00099040008B7010008B7010008B70100082B
:1000F000B7010008B7010008B7010008B701000800
:10010000B7010008B7010008B7010008B7010008EF
:10011000B7010008B7010008B7010008B7010008DF
:10012000B7010008B7010008B7010008B7010008CF
:10013000B7010008B7010008B7010008B7010008BF
:10014000B7010008B7010008B7010008B7010008AF
:10015000B7010008B7010008B7010008B70100089F
:10016000B7010008B7010008B7010008B70100088F
:10017000B7010008B70100080000000000000000FF
:10018000B7010008B7010008DFF80CD000F06CF8E8
:1001900000480047213100088805002006488047B4
:1001A00006480047FEE7FEE7FEE7FEE7FEE7FEE75C
:1001B000FEE7FEE7FEE7FEE7B92B0008890100082D
:1001C0002DE9F05F0546002092469B46884606468C
:1001D000814640241BE0284641464746224600F01F
:1001E00032F853465A46C01A914110D31146184668
:1001F000224600F019F82D1A67EB01084F462246F7
:100200000120002100F010F817EB00094E41201EDC
:10021000A4F10104DFDC484631462A46434600F09B
:1002200000B830BCBDE8C09F202A04DB203A00FAA9
:1002300002F1002070479140C2F1200320FA03F33D
:10024000194390407047202A04DB203A21FA02F03B
:100250000021704721FA02F3D040C2F12002914000
:100260000843194670470000064C074D06E0E06859
:1002700040F0010394E8070098471034AC42F6D3ED
:10028000FFF786FF4C3200086C320008024901205B
:100290000860024800F0A8BB0400002018000020FD
:1002A0002DE9F041044600270D46006802F0B5F83C
:1002B0000646206802F0ADF8304359D02068C16886
:1002C0002C4E890105D5617E012902D1217E0129AB
:1002D0000BD0022D1DD0206802F09FF8B8B1206825
:1002E0008168C1F3400169B111E00125224902E0B2
:1002F0008F422ED27F1C0268D2435206F8D440218E
:100300000160E8E78168314041F010018160012D12
:1003100011D0206802F07DF848B120688168C1F3EF
:10032000400121B98168314041F020018160022DF6
:1003300008D0032D04D0042501F0AAF8064613E0E6
:100340000C25F9E70825F7E701F0A2F8801B05283E
:100350000AD9606D40F010006065A06D40F00100AA
:10036000A0650120BDE8F081206880682842EBD1BB
:100370000020F7E7C0FFFF7F000040A370B50446F0
:10038000006881688268C1F3400112F0010F24D037
:1003900019BB816801F00D01012910D18168104A53
:1003A0001140891C816021680320086001F070F809
:1003B00005460EE001F06CF8401B022809D9606D7B
:1003C00040F010006065A06D40F00100A0650120C4
:1003D00070BD20688068C007ECD1002070BD0000AF
:1003E000C0FFFF7F70B504460068816811F0010FFF
:1003F00028D18168144A114215D18168D54329401A
:10040000491C816001F044F8064616E0816811F04D
:10041000010F03D181682940491C816001F038F83F
:10042000801B022809D9606D40F010006065A06D46
:1004300040F00100A065012070BD20680168C9433B
:10044000C907E3D1002070BD3F000080FEE7000037
:10045000014800F030BE00003C010020014800F0DF
:100460002ABE0000F400002030B590F8444004F0AB
:100470001C050124AC40056C6C60046863608368F3
:10048000102B036803D099600068C26030BD9A6089
:100490000068C16030BD704710B54FF4806000F057
:1004A00001FF4FF4006000F0FDFE4FF4005000F03B
:1004B000F9FE4FF4804000F0F5FEBDE810404FF427
:1004C000004000F0EFBE10B5202000F0EBFE402011
:1004D00000F0E8FE802000F0E5FEBDE810404FF49B
:1004E000807000F0DFBE70477047704770477047FC
:1004F0002DE9F047044690F850009AB00D464FF0B1
:100500000008012813D0012084F85000304E2068E4
:100510004FF00009B0420ED12E4F0097384601F03F
:1005200080FF8246206801F07CFF60B10EE002206F
:100530001AB0BDE8F087616D41F02001616584F873
:1005400050900120F4E7BAF1000F09D0606D40F03F
:10055000200060654FF0010884F850904046E7E7BE
:100560001D4829681D4A0029816840F61F7321F43F
:1005700060411BD094F830C041EA4C31D5F804C03A
:1005800041EA0C018160B168BE6801F0010106F02A
:1005900001069268314302F001021143DCD1AA68DE
:1005A0002968114382689A4311430EE08160B16863
:1005B000BD6801F0010105F001059268294302F0D0
:1005C00001021143C8D1816899438160C4E70000EA
:1005D00000000450000104500003045000020450C5
:1005E0002DE9F84F00270446009790F85000DFF8F7
:1005F000B8930D46B846012811D0012684F8506002
:10060000206801F00AFF60B1606D40F02000606575
:100610005FF0010784F85080384600F0DDB9022011
:10062000FBE768680C23052812D8022807D00328A6
:1006300007D0042807D0052807D0062007E06B6004
:1006400006E0122003E0182001E04FF4807068609B
:10065000D5E9002103EA9113206801F01F01184435
:100660004FF01F0C0CFA01FC036BC2F3846223EA07
:100670000C038A4013430363206801F0CEFE8246D8
:10068000206801F0C6FE5AEA00001DD1AA68296858
:10069000206801F0D2FE20686969C268C2F3C10215
:1006A000520091402A69042A0FD000EB82002B6887
:1006B000DFF8F8C2026E03F0F84302EA0C020B43C3
:1006C0001A4342F00041016672E0002101F09BFEF6
:1006D000400320684FF0000172D001F094FE90FAC0
:1006E000A0F0B0FA80F1286842036ED090FAA0F032
:1006F000B0FA80F0814204D100221146206801F056
:10070000ABFE0121206801F07EFE400320684FF01F
:1007100001015DD001F077FE90FAA0F0B0FA80F10F
:100720002868420359D090FAA0F0B0FA80F08142D4
:1007300004D100220121206801F08EFE02212068F0
:1007400001F061FE400320684FF0020148D001F043
:100750005AFE90FAA0F0B0FA80F12868420344D023
:1007600090FAA0F0B0FA80F0814204D10022022178
:10077000206801F071FE0321206801F044FE40036F
:1007800020684FF0030133D001F03DFE90FAA0F055
:10079000B0FA80F1286842032FD090FAA0F0B0FAA6
:1007A00080F0814204D100220321206801F054FE30
:1007B0002068816811F0010F22D0ACE000E004E075
:1007C00001F021FEC0F384618DE7C0F3846091E7FE
:1007D00001F019FEC0F38461A2E7C0F38460A6E7CC
:1007E00001F011FEC0F38461B7E7C0F38460BBE79A
:1007F00001F009FEC0F38461CCE7C0F38460D0E768
:100800002A7B296850F8B03FC1F3120C23EA0C038D
:1008100002F0180C664A22FA0CF20A4013430360F5
:10082000E968494577D1286841031CD090FAA0F1C6
:10083000B1FA81F1491C01F01F0109294FEA403149
:1008400032D8002912D000BF90FAA0F1B1FA81F19C
:1008500001F1010101F01F0106FA01F609D100BF03
:10086000C0F3846109E0C0F38461E3E7C0F384610D
:10087000EEE790FAA0F1B1FA81F101F1010101F086
:100880001F0146EA816102D1C0F3846003E090FA5F
:10089000A0F0B0FA80F000F1010000F01F0000EBC2
:1008A000400041EA005132E000290ED090FAA0F158
:1008B000B1FA81F101F1010101F01F0106FA01F61F
:1008C00006D100BFC0F3846106E0C0F38461F1E7A4
:1008D00090FAA0F1B1FA81F101F1010101F01F01DB
:1008E00046EA816102D1C0F3846003E090FAA0F08F
:1008F000B0FA80F000F1010000F01F002D4A00EB7B
:10090000400002EB005041EA000141F00071AA688A
:10091000206801F092FD28482A6802423FF47AAE2E
:1009200026488168264E274B274D01F0E071B242E0
:100930001CD10E021AD422689A4202D0AA427FF435
:1009400069AE826841F4000122F0E0720A438260DD
:100950001E481F490068B0FBF1F000EB400080002A
:1009600000E0401E00900028FBD153E6194EB24231
:1009700009D1CE0107D422689A4201D0AA42F4D10B
:1009800041F080710AE06FF00045EA42EDD14A0281
:10099000EBD422689A42E8D141F48001826822F0C7
:1009A000E0720A43826035E600007F4000F0FF03FA
:1009B000FFFF0700000020FE000008800003045035
:1009C000000052C700000450000204501400002030
:1009D000400D0300000084CB18BCBDE8E08F7047D9
:1009E00070470068006C70472DE9F05F04460068AE
:1009F00006684568DFF854B2DBF8080000F01F070E
:100A0000B0070ED5A8070CD5606DC00603D4606D85
:100A100040F4006060652046FFF765FD2168022014
:100A20000860DFF82CA2DFF82C82700701D5680778
:100A300003D4300737D5280735D5606DC00603D4F9
:100A4000606D40F400706065206801F0EEFC20B33A
:100A50002068504501D1424600E00246824208D05B
:100A60003FB1052F05D0092F03D0504503D1414692
:100A700002E0C16801E00146C96889040DD401683B
:100A800009070AD501F0C9FC58B3606D40F01000A9
:100A90006065A06D40F00100A0652046FFF79FFF54
:100AA00021680C200860B00601D5A80603D47006A2
:100AB00058D5680656D5606DC00603D4606D40F405
:100AC000005060652068C16C11F0C00F1AD0002181
:100AD000894601F0AAFC02462068504514D14346DD
:100AE00013E02068416821F00C014160606D20F442
:100AF00080706065606DC004CFD4606D40F001000F
:100B00006065CAE70121E3E70346834208D03FB1AD
:100B1000062F05D0072F03D0504503D1414602E0F0
:100B2000C16801E00146C968B9F1000F04D18B0129
:100B300012D48AB18A040FD4026852060CD58902F5
:100B40000AD401F066FCE8B3606D40F01000606507
:100B5000A06D40F00100A0652046FFF7C5FC2168AC
:100B60006020086030060BD5280609D5606D40F47A
:100B700080306065204600F05BF9216880200860C5
:100B8000F0050CD5E8050AD5606D40F400306065CD
:100B90002046FFF7ABFC21684FF480700860B00579
:100BA0000CD5A8050AD5606D40F48020606520460C
:100BB000FFF79DFC21684FF400700860F0062ED509
:100BC000E80600E008E02AD5606BD0B1AFB1DBF8F1
:100BD000080000F4604013E02068416821F06001E3
:100BE0004160606D20F480506065606DC005B3D4D5
:100BF000606D40F001006065AEE72068C068C00726
:100C000050B1606D40F480606065A06D40F00200FE
:100C1000A0652046FFF7E4FE2168102008607005FB
:100C200012D5680510D5606D40F480406065A06DF8
:100C300040F00800A06521684FF4806008602046FD
:100C400000F00AB8FFF751BC00F00BB800030450E5
:100C5000000104500000045030BCBDE8C05FFFF745
:100C6000F1BF30BCBDE8C09FF8B54FF000050400EF
:100C70002E46009502D0606D10B107E00120F8BD4E
:100C8000204600F0D7F8A66584F850602068816897
:100C9000C1F3407119B181685B4A114081602068DD
:100CA0008168C1F3007179B98168584A114041F0F7
:100CB00080518160564857490068B0FBF1F000E070
:100CC000401E00900028FBD120688168C1F30071AC
:100CD00041B9616D41F010016165A16D41F0010103
:100CE000A165012501F099FB616DC90600D430B101
:100CF000606D40F01000606501252846F8BD606D0C
:100D000020F4807040F0020060652068806810F078
:100D1000010F15D140488068404900F00100896802
:100D200001F0010108433E49896801F001010843CF
:100D300006D13C4960688A6822F47C1202438A60CA
:100D4000E168606B627E0843A16841EA4231084372
:100D500094F8201040EA0140012904D1A18C324AC4
:100D600002EB41410843A16A29B101F47071E26AC2
:100D7000014342EA01002268D1682C4B194001432B
:100D8000D160206801F049FB0646206801F041FB74
:100D9000304315D1207E94F830102268800340EA59
:100DA0004101D06844F2020398430843D06094F8AC
:100DB000380001280CD02068016921F0010101618F
:100DC000206901282068016B21F00F0111D013E088
:100DD000D4E90F010843D4E91112114308432168F3
:100DE0000A6940F2FC739A43104340F00100086125
:100DF000E6E7E269521E11430163606D20F00200D4
:100E000040F00100606578E7C0FFFF5FC0FFFF7F33
:100E100014000020400D03000000045000010450A5
:100E200000020450000304500000FEFF07C0F0FF62
:100E30007047000030B50068174987B0884228D154
:100E40001648C16C41F40051C164C06C0B2400F41D
:100E5000005005903F2000258DE83100694610487C
:100E600000F02CFA10208DE8310069464FF09040D8
:100E700000F024FA02208DE831006946094800F0AC
:100E80001DFA00221146122000F084FB122000F00F
:100E900075FB07B030BD0000000004500010024098
:100EA00000080048000400482DE9F0410446584875
:100EB000806800F01F05206801F0AFFA18B1022227
:100EC0001046BDE8F08194F8500001280CD00120B4
:100ED00084F850002046FFF785FA02004FF0000327
:100EE00004D084F85030EBE70220EAE7606D40F66A
:100EF0000161884340F48070606546492068464E31
:100F0000884201D1374600E00746874200D01DB92C
:100F1000676D27F480176765676DFF0404D5A76DBB
:100F200027F00607A76500E0A3651C27076084F883
:100F300050302068436823F01C0343606069082830
:100F40002068436802D043F0040301E043F0080343
:100F50004360606B20B92068436843F0100343602E
:100F60002068884201D1334600E0034683420CD01A
:100F70005DB1052D09D0092D07D0636D43F48013B1
:100F80006365884225D1314624E0C168890119D5BD
:100F9000616D21F4005141F4805161656169082956
:100FA000416807D021F0400141602068416841F06C
:100FB000200106E021F0200141602068416841F0F5
:100FC0004001416020688168144B1940091D81600F
:100FD00076E70146C968890185D5616D21F4005124
:100FE00041F48051616561690829416807D021F0A9
:100FF000400141602068416841F0200106E021F095
:10100000200141602068416841F04001416057E79C
:10101000000304500001045000000450C0FFFF7F93
:1010200010B5044690F85000012808D0012084F83B
:10103000500003212046FFF733F910B110E00220E1
:1010400010BD2068416821F01C0141602046FFF777
:1010500095F928B9616D21F4885141F0010161656C
:10106000002184F8501010BD10B590F82510002410
:10107000022903D00421C16301241AE001680A682F
:1010800022F00E020A6001680A6822F001020A607A
:1010900090F84410036C01F01C02012101FA02F2E5
:1010A0005A6080F82510002180F82410816B01B16E
:1010B0008847204610BDF0B4016C0C6801680D68CB
:1010C00090F8442002F01C06042202FA06F32342A0
:1010D00011D06B070FD50B689B0603D40B6823F068
:1010E00004030B6090F8441001F01C018A40016C6D
:1010F0004A60016B1DE0022303FA06F727424FF016
:10110000000C4FF0010218D0AF0716D50C68A406EA
:1011100005D40C6824F00A040C6080F8252090F8AF
:10112000441001F01C018B40016C4B6080F824C01E
:10113000C16A00291AD0F0BC08470823B3402342F3
:1011400014D02B0712D50B6823F00E030B6090F818
:101150004410036C01F01C0102FA01F15960C263F2
:1011600080F8252080F824C0416BE2E7F0BC70478E
:1011700070B568B12B4C036814212B4AA34209D2E5
:101180002A4C1C44B4FBF1F18900C0E910210BE0AA
:10119000012070BD234C64421C44B4FBF1F1890072
:1011A0004164204908390164022180F825101C6837
:1011B00047F6F0718C43D0E902152943D0E9045673
:1011C0003543294385692943C5692943056A29436C
:1011D000214319608168B1F5804F19D0036C0F214C
:1011E000934202D152F8A83F02E00E4AA03213689F
:1011F00090F8444004F01C04A1408B43136090F825
:101200004430416803F01C0399401368194311608E
:101210000021C163012280F8252080F824100846AF
:1012200070BD00000804024000000240F8FFFDBF4E
:1012300070B5044690F82400002501280CD0012048
:1012400084F8240094F825600020012E06D084F84C
:1012500024000225284670BD022070BD022684F8B5
:101260002560E0632068066826F0010606602046D7
:10127000FFF7FAF8206B00282068016802D041F0DF
:101280000E0106E021F0040101602068016841F0D0
:101290000A0101602068016841F001010160D9E79D
:1012A00070470000044910B50A68024202D0086085
:1012B000FFF7F6FF10BD0000140401402DE9F84FC0
:1012C000DFF898B100234FF0010C4FF0030A4FF004
:1012D0000F090BF1040EB9E00CFA03F4224070D0B0
:1012E0004D68022D01D0122D0ED1DD0800EB8508CE
:1012F000D8F820505E07F70E09FA07F6B5430E69D5
:10130000BE402E43C8F8206007685E0091F8048054
:101310000AFA06F508F00308AF4308FA06F848EAA7
:101320000708C0F800804F68012F05D0022F03D0B6
:10133000112F01D0122F13D1D0F80880CF6828EADE
:101340000508B74047EA08078760D0F804800F799E
:1013500028EA0408C7F300179F4047EA08074760D8
:10136000D1F804806FEA0807BF0706D1C76AA74310
:10137000C8F3C0049C403C43C462C468AC438D685D
:10138000B5402543C5604C68E4005ED5344C256EFD
:1013900045F001052566246E23F0030504F00104E1
:1013A0000094304C2E19B4689D072F0F09FA07F5E9
:1013B000AC43B0F1904F05D02B4DA84204D101258C
:1013C0001CE042E0002519E0284DA84201D1022589
:1013D00014E0274DA84201D103250FE0254DA84276
:1013E00001D104250AE0244DA84201D1052505E0DC
:1013F000224DA84201D1062500E00725BD40254326
:10140000B560DBF800405D464E689443F60300D5B6
:1014100014432C60DEF8004075464E689443B603D2
:1014200000D514432C600D4D08352C684E6894434C
:10143000F60200D514432C60084D0C352C684E681C
:101440009443B60200D514432C605B1C0A6832FA40
:1014500003F57FF441AF00F013B800000004014031
:10146000001002400000014000040048000800484D
:10147000000C004800100048001400480018004804
:1014800018BCBDE8E08F0AB1816170478162704786
:101490000148006870470000100000200248016801
:1014A000491C0160704700001000002010B50024A6
:1014B000032000F08FF8002000F008F808B10124A4
:1014C00001E000F01BF8204610BD000070B5054695
:1014D00009484FF47A7100240068B0FBF1F000F085
:1014E000E6FD08B1012404E000222946501E00F068
:1014F00051F8204670BD0000140000201E4808B5B9
:10150000016E41F001010166016E01F001010091DF
:10151000816D41F080518165806D00F080500090B8
:10152000032000F057F8002211466FF00B0000F086
:1015300031F8002211466FF00A0000F02BF800226B
:1015400011466FF0090000F025F800221146501FE7
:1015500000F020F800221146101F00F01BF80022B6
:101560001146901E00F016F80022BDE80840114612
:10157000501E00F00FB800000010024000F01F02E3
:10158000012191404009800000F1E020C0F80011E5
:1015900070470000F0B40E4B1B680C46C3F30223E7
:1015A000C3F10705042D00D90425191D072901D20F
:1015B000002300E0DB1E012606FA05F1491E21404A
:1015C00099409E40761E16403143F0BC01F02AB986
:1015D0000CED00E0064900F0070208684FF6FF0333
:1015E000184040EA0220034A104308607047000098
:1015F0000CED00E00000FA051649B0F5007F086820
:10160000C0F3412009D0022805D0086820F4C0604A
:1016100040F480600860002070470128FBD0086813
:1016200020F4C06040F4007008600B48322200686B
:1016300050430A4AB0FBF2F0401C00E0401E4A69E9
:10164000520501D50028F9D148694005E3D50320AA
:1016500070470000007000401400002040420F005E
:101660000248006800F4C06070470000007000404D
:101670002DE9F84F044600270088E54D3E46010558
:1016800004F1200B1DD5606E78B1B0F5800F11D03C
:10169000B0F5000F04D0B0F5400F22D001270FE0C5
:1016A000E86840F48030E8601BE00021201D01F074
:1016B000CBF803E00021584601F05CF9070010D098
:1016C0003E462088C00426D5A06EC0B1B0F1807F10
:1016D0001AD0B0F1007F0DD0B0F1407F19D00127B2
:1016E00018E0D5F88800616E20F440000843C5F882
:1016F0008800E6E7E86840F48030E86009E000210F
:10170000201D01F0A1F803E00021584601F032F954
:101710000746F7B13E46206880033AD5A86D4FF0E2
:101720000008C00009D4A86D40F08050A865A86DDD
:101730004FF0010800F080500090DFF8D8A2DAF8EE
:10174000001041F48071CAF80010FFF7A1FE814635
:1017500010E0D5F88800A16E20F040700843C5F86D
:101760008800D8E7FFF794FEA0EB0900022801D912
:10177000032705E0DAF80000C005F3D5002F7CD080
:101780004FEA0706B8F1000F03D0A86D20F0805093
:10179000A8652078C00707D0D5F88800A16B20F095
:1017A00003000843C5F888002078800707D5D5F8DE
:1017B0008800E16B20F00C000843C5F88800207811
:1017C000400707D5D5F88800216C20F03000084389
:1017D000C5F888002078000707D5D5F88800616C27
:1017E00020F0C0000843C5F888002078C00607D55F
:1017F000D5F88800A16C20F440700843C5F8880033
:101800002078800607D5D5F88800E16C20F4406088
:101810000843C5F888002088800507D5D5F88800DA
:10182000E16D20F440200843C5F888002088400579
:1018300007D5D5F88800216E20F440100843C5F87C
:1018400088002078400607D5D5F88800216D20F45F
:1018500040500843C5F888002078000607D5D5F821
:101860008800616D20F440400843C5F88800208856
:10187000C00509D5D5F8880000E01CE0A16D20F472
:1018800040300843C5F8880020884FF00067800486
:101890004FF080684FD5D5F88800E16E20F04060A9
:1018A0000843C5F88800E06EB8423CD1E86840F4CF
:1018B0008010E8603FE0D5F8900010F4407015D03B
:1018C000D4F88410814211D0D5F89000D5F890104A
:1018D00020F4407041F48031C5F89010D5F8901094
:1018E00021F48031C5F89010C5F89000C00710D0E1
:1018F000FFF7CEFD074641F2883906E0FFF7C8FD45
:10190000C11B494501D903263CE7D5F89000800763
:10191000F4D5D5F89000D4F8841020F44070084332
:10192000C5F890002EE7404505D10121201D00F0AB
:101930008BFF00B106462068000317D5D5F8880054
:10194000216F20F040600843C5F88800206FB8423E
:1019500004D1E86840F48010E86007E0404505D114
:101960000121201D00F070FF00B1064620684003F1
:1019700017D5D5F88800616F20F040600843C5F89E
:101980008800606FB84204D1E86840F48010E860D5
:1019900007E0404505D10121201D00F055FF00B1B1
:1019A0000646208840041AD5D5F88800A16F20F09B
:1019B00040500843C5F88800A06FB0F1805F03D0A5
:1019C000B0F1005F05D00AE00221201D00F03CFFCD
:1019D00003E00221584600F0CDFF00B10646208802
:1019E000000407D5D5F88800E16F20F08040084357
:1019F000C5F888002068C00307D555F8880FD4F8CB
:101A0000801020F0004008432860304600F004B801
:101A1000001002400070004018BCBDE8E08F0000DC
:101A20002DE9F0470F46050058D03F4E306800F0D2
:101A30000700B84209D2306820F007003843306010
:101A4000306800F00700B84248D12878374CC0070A
:101A50002CD06868032811D0022812D0216898B1D0
:101A6000490500293ADAA16821F003010143A16088
:101A7000FFF70EFD804641F2883910E021688901A8
:101A8000EFE721688903ECE78907EAE7FFF700FD44
:101A9000A0EB0801494502D90320BDE8F087A06802
:101AA000696800F00C00B0EB810FEFD12878800757
:101AB00005D5A068A96820F0F0000843A060306850
:101AC00000F00700B8420BD9306820F00700384317
:101AD0003060306800F00700B84201D00120DCE738
:101AE0002878400705D5A068E96820F4E06008433D
:101AF000A0602878000706D5A068296920F4605006
:101B000040EAC100A06000F041F8A168084AC1F3B2
:101B10000311515C01F01F01C84006490860BDE88F
:101B2000F0470020FFF7D2BC002002400010024026
:101B300004320008140000200148006870470000CB
:101B4000140000200548064900688968054AC1F369
:101B50000221515C01F01F01C840704714000020B1
:101B600000100240443200080548064900688968B0
:101B7000054AC1F3C221515C01F01F01C840704702
:101B800014000020001002404432000870B52549BE
:101B9000002318468A68CC6812F00C0204F0030691
:101BA000214C4FEA640509D00C2A05D0042A26D01E
:101BB000082A00D1284670BD012E10D10B681B07E2
:101BC00004D4D1F89430C3F3032302E00B68C3F3C9
:101BD0000313164E56F823307AB10C2AEBD1C8689D
:101BE00000F00302C868C0F30210401C022A08D0AB
:101BF000032A09D0B3FBF0F008E0184670BD204678
:101C000070BDB4FBF0F001E0B5FBF0F0CA68C96844
:101C1000C2F306225043C1F34161491C4900B0FBA5
:101C2000F1F070BD001002400024F40014320008EE
:101C30002DE9F84305007CD0FD4CA06800F00C06AF
:101C4000E06800F003072878C00661D576B10C2E55
:101C500001D1012F0AD0A8690028206878D040F06F
:101C600001002060FFF714FC804659E020688007DF
:101C700002D5A8690028DED0286A2168090703D5A3
:101C8000216801F0F00104E0D4F89410F02202EA97
:101C90001111884215D900F0F1FE002849D12068C1
:101CA00040F0080020602068296A20F0F000084316
:101CB00020606068E96920F47F4040EA01206060AC
:101CC00015E0206840F0080020602068296A20F0B4
:101CD000F000084320606068E96920F47F4040EA32
:101CE00001206060286A00F0C9FE0028D6D1FFF705
:101CF0004DFFA168CF4AC1F30311515C01F01F01F0
:101D0000C840CD4908600020FFF7E0FB00287DD1E6
:101D10002FE000BFFFF7BCFBA0EB0800022876D83D
:101D200020688007F6D5206840F008002060206811
:101D300001E0BBE00CE0296A20F0F00008432060DD
:101D40006068E96920F47F4040EA0120606010E0AB
:101D500020F001002060FFF79BFB804606E000BFFB
:101D6000FFF796FBA0EB08000228D8D82068800770
:101D7000F6D42878C00740D0082E18D00C2E01D1F8
:101D8000032F14D06868B0F5803F17D0B0F5A02FAE
:101D9000206817D020F480302060206820F4802054
:101DA00020606868E0B1FFF773FB804614E02068AC
:101DB000800322D56868002878D01EE0206840F4AF
:101DC0008030EDE740F480202060F7E7FFF760FB0C
:101DD000A0EB08006428A2D820688003F6D50CE0A8
:101DE000FFF756FB804605E0FFF752FBA0EB08002B
:101DF000642894D820688003F6D4287880073BD5DF
:101E0000042E11D00C2E04D1022F01E036E1A1E006
:101E10000AD0E868002820681ED040F48070206056
:101E2000FFF736FB07460CE0206840050CD5E86854
:101E30000028C1D008E000BFFFF72AFBC01B022822
:101E400093D820684005F7D56068297C20F0F850C9
:101E500040EA016060600FE020F480702060FFF7CE
:101E600017FB074605E000BFFFF712FBC01B022867
:101E700070D820684005F7D42878000729D568690C
:101E80000028D4F8940012D040F00100C4F8940067
:101E9000FFF7FEFA074604E0FFF7FAFAC01B022834
:101EA00058D8D4F894008007F6D512E0EDE020F081
:101EB0000100C4F89400FFF7EBFA074605E000BF05
:101EC000FFF7E6FAC01B022844D8D4F89400800734
:101ED000F6D42878400768D5A06D0027C00008D444
:101EE000A06D40F08050A065A06D012700F08050EB
:101EF000009052480168C90512D40168814641F436
:101F000080710160FFF7C4FA804605E0FFF7C0FA70
:101F1000A0EB080002281DD8D9F80000C005F5D5AF
:101F2000A868012817D00528D4F8900018D020F010
:101F30000100C4F89000D4F8900020F0040000BF25
:101F4000C4F89000A86841F28839D0B1FFF7A0FA30
:101F5000804611E06BE0D4F8900040F00100EFE71C
:101F600040F00400C4F89000F5E700BFFFF790FAD6
:101F7000A0EB080149455AD8D4F890008007F5D560
:101F80000EE0FFF785FA804606E000BFFFF780FA13
:101F9000A0EB0801494570D8D4F890008007F5D42B
:101FA0001FB1A06D20F08050A065A86AF0B30C2E80
:101FB0006BD00228206820F08070206004D0206858
:101FC00010F0205F47D04AE0FFF762FA064604E0CF
:101FD000FFF75EFA801B02284FD820688001F7D4F3
:101FE000286BE96A000110380843696BAA6B090283
:101FF000120941EA42410843A98F114A490802EBFC
:102000004151084395F840104908120102EB416123
:102010000843E060206840F080702060E06840F095
:102020008070E060FFF734FA054610E02BE024E012
:10203000001002400432000814000020007000402C
:102040000000E0FFFFF724FA401B022815D82068A3
:102050008001F7D517E0E06820F00300E060E06859
:102060000B490840E060FFF713FA054608E000BF9F
:10207000FFF70EFA401B022802D90320BDE8F883BF
:1020800020688001F4D40020F8E70120F6E7000082
:10209000FFFFEEFE4FF0E0210428086903D020F096
:1020A00004000861704740F00400FAE7704710B57B
:1020B000401EB0F1807F01D3012010BD4FF0E0241D
:1020C00060610F21601700F0ADFB0020A0610720C8
:1020D0002061002010BD10B5FFF7E8FF10BD70476C
:1020E000704700002DE9F04102680446D06911688C
:1020F000936810F00F0F4FF000055BD003F001065E
:1021000001F49077374369D0C70707D0CF0505D5CD
:1021100001271762626F42F001026267820708D5E9
:10212000DA0706D0276802223A62626F42F00402A0
:102130006267420708D5DA0706D0236804221A62CC
:10214000626F42F00202626702070AD501F02002C4
:10215000324306D0236808221A62626F42F00802F6
:102160006267626F002A32D0800605D5880603D5E3
:10217000216E09B120468847606F000703D42068AC
:102180008068400625D5204600F016FE206881684C
:10219000490619D5816821F040018160E06E98B14F
:1021A00020498163E06EFEF75FFF00280FD0E06EEC
:1021B000816B06E0860611D58E060FD5216E1EE0D6
:1021C0002046BDE8F04108472046FFF789FFBDE8FB
:1021D000F0812046FFF784FF6567F8E7C60209D55E
:1021E0005B0207D54FF4801010622046BDE8F04135
:1021F000FFF775BF030605D50B0603D5616E0029F1
:10220000DED1E4E74006E2D54806E0D51168204675
:1022100021F040011160202184F87110656600F002
:10222000EFF8D4E7212D000810B5040003D094F88E
:10223000710010B107E0012010BD002084F870008B
:10224000204600F027F8242084F8710020680168F7
:1022500021F001010160204600F0C8FD0128EBD00B
:10226000606A10B1204600F0C9FC2068416821F482
:10227000904141602068816821F02A0181602068D6
:10228000016841F0010101602046BDE8104000F006
:1022900019BD00002DE9F04106460068294986B0C5
:1022A00088424CD12848016E41F480410166006E9D
:1022B0004FF0020800F480400590C020CDE90008EE
:1022C00000240320CDE902400720049047466946D8
:1022D0001E48FEF7F3FF1F4D1D482860C5E9017435
:1022E0008027C5E903476C61AC61EC6128462C622C
:1022F000FEF73EFF18B1CD2117A000F000FFF566F4
:10230000AE6213481B4D1438E5E80208102091C551
:10231000184845F81449AC61EC612C62FEF728FFBF
:1023200018B1DE210CA000F0EAFEB56600221146CD
:102330002520AE62FFF72EF92520FFF71FF906B022
:10234000BDE8F08100380140001002400004004860
:1023500058000240F40000202E2E2F5372632F737A
:10236000746D33326C3478785F68616C5F6D737054
:102370002E6300003C01002070B5044690F8710007
:10238000202834D181B37AB394F8700001282ED07C
:10239000012084F87000E164A4F85020A4F85220D1
:1023A00000256567212084F87100A16E114813464D
:1023B000C862A16E10480863A16E10484863A06E01
:1023C00085632668E16C06F12802A06EFEF730FFF7
:1023D00021684020086284F870502068816841F0CC
:1023E00080018160002070BDFFE70120FBE7022033
:1023F000F9E700007F2D0008AF2D0008352D0008FB
:1024000070477047FEE700EB8100006E00F0F84077
:1024100070478068C0F3C00070478068C0F38000D8
:1024200070478068C0F380007047C06810F4406F48
:1024300001D00020704701207047042310B503EA43
:10244000D1531844C1F3045107248C4043698A4096
:10245000A3431343436110BD00EB8100016E21F0E3
:10246000004111430166704730B51D4889B01B49D2
:1024700001604FF480210024C0E901140425C460E8
:10248000C0E90445047644760121C16180F820400A
:102490008462C46280F83040446380F83840FEF7BC
:1024A000E3FB00B1FEE706A90D480694FEF720F80D
:1024B00000B1FEE70B480090062001900220029038
:1024C0007F200594CDE9030569460548FEF788F8A5
:1024D000002800D0FEE709B030BD00000000045025
:1024E00018000020000052C72DE9F04FB54887B012
:1024F000C16C41F01001C164C16C01F01001059183
:10250000C16C41F00401C164C16C01F0040105918A
:10251000C16C41F00101C164C16C01F00101059180
:10252000C16C41F00201C164C16C01F0020105916E
:10253000C16C41F00801C164C06C002200F00800C9
:10254000059040F21511A048FEF79DFF002248F2C9
:1025500004114FF09040FEF796FF00224FF2340135
:102560009A48FEF790FF002243F281019848FEF757
:102570008AFF00224FF410719648FEF784FF40F264
:102580001510009001200024CDE9010469468E4811
:102590000394FEF793FE904D6A20CDE9000569464D
:1025A00002948948FEF78AFE4FF4005000908B4851
:1025B000CDE9010469468748FEF780FE03200090BC
:1025C0000220CDE9010403200826CDE9030669466F
:1025D0004FF09040FEF772FE48F204100090012088
:1025E000CDE9010469464FF090400394FEF766FE82
:1025F00002200096CDE901040120CDE9034069469F
:102600004FF09040FEF75AFEE02000900220CDE906
:10261000010403200526CDE9030669464FF09040EA
:10262000FEF74CFE0120CDE900056946029467489B
:10263000FEF744FE4FF2340000900120CDE9010482
:10264000694662480394FEF739FEF00100900220CB
:10265000CDE901044FF00608CDE9034869465A4820
:10266000FEF72CFE4FF47C4000900220CDE90104DF
:1026700003200A27CDE9030769465348FEF71EFEEB
:102680004FF440604FF01209CDE90009012002909B
:1026900003204FF0040ACDE9030A69464B48FEF7D0
:1026A0000DFE4FF4407000900220CDE9010403209C
:1026B0004FF0070BCDE9030B69464548FEF7FEFDD9
:1026C0004CF60440CDE90005694602944048FEF707
:1026D000F5FD43F2810000900120CDE90104694637
:1026E0003B480394FEF7EAFD4FF410700090012080
:1026F000CDE90104694637480394FEF7DFFD4FF446
:10270000C070CDE90005694602943248FEF7D6FD57
:102710004FF40070CDE9000469464FF090400294F8
:10272000FEF7CCFD4FF4E05502200095CDE9010401
:102730000320CDE9030769464FF09040FEF7BEFD48
:1027400002200095CDE901040320CDE90308694684
:102750002048FEF7B3FD02200090CDE901040320DC
:10276000CDE9030669461A48FEF7A8FD78200090D7
:102770000220CDE901040320CDE9030B694614488A
:10278000FEF79CFD4FF44070CDE900090120029056
:102790000320CDE9030A69460C48FEF78FFD0022AD
:1027A00011461720FEF7F6FE1720FEF7E7FE00227F
:1027B00011462820FEF7EEFE2820FEF7DFFE07B0C8
:1027C00000F00EB80010024000100048000400485D
:1027D000000C004800080048000011100000211003
:1027E00030BCBDE8C08F00000C4810B50A4901603C
:1027F0004FF4E1314160002181600C22C160C0E9E9
:1028000004128161C16101624162FFF70DFD002880
:1028100000D0FEE710BD0000003801407C00002021
:10282000FEE770470907090E002806DA00F00F00DE
:1028300000F1E02080F8141D704700F1E02080F8DE
:1028400000147047704700002DE9F041444C0546E4
:102850008846E0680026810728680DD0E16801F00D
:102860000301814216D1A8B1E0686968C0F3021083
:10287000401C88420ED120E0012804D0022805D057
:10288000032807D108E02168890701E0216849058C
:10289000002907DB01265FE02168890302D4216853
:1028A0004903F5E7E1686A686FF00F0321F07301EF
:1028B00003EB021211430143E160206820F08060C5
:1028C0002060FEF7E5FD074605E000BFFEF7E0FDEE
:1028D000C01B022837D820680001F7D4B8F1000FD8
:1028E00018D0B8F1010F1ED0287D4FF07E4140086E
:1028F00001EB4060A96840EA01202169194A1140B2
:1029000008432061206840F080602060FEF7C0FD31
:1029100007461AE0A868E9680002090940EA414050
:102920002169114AEBE7288A1049400801EB405021
:10293000A96840EA012021690D4AE0E7FEF7A8FDF9
:10294000C01B022801D9032606E020680001F5D546
:102950002069A969084320613046BDE8F081000084
:1029600000100240FF80FFF9FF80FDFF0000E0FF44
:10297000FF809FFF2DE9F0413D4C06468846E06808
:102980000025810730680DD0E16801F00301814224
:1029900016D1A8B1E0687168C0F30210401C8842EB
:1029A0000ED120E0012804D0022805D0032807D149
:1029B00008E02168890701E021684905002907DB53
:1029C000012551E02168890302D421684903F5E714
:1029D000E16872686FF00F0321F0730103EB0212DC
:1029E00011430143E160206820F080502060FEF731
:1029F0004FFD074605E000BFFEF74AFDC01B022859
:102A000029D820688000F7D4B8F1000F15D0307CA9
:102A10004FF07E41400801EB4060B16840EA012080
:102A20006169144A114008436061206840F0805099
:102A30002060FEF72DFD07460FE0B068F168000248
:102A4000090940EA414061690B4AEBE7FEF720FDC6
:102A5000C01B022801D9032506E020688000F5D5B7
:102A600060697169084360612846BDE8F081000033
:102A700000100240FF80FFF9FF80FDFFF8B51C4DFC
:102A800006460024A86DC00002D5FEF7E9FD0DE062
:102A9000A86D40F08050A865A86D00F080500090AF
:102AA000FEF7DEFDA96D21F08051A965B0F5007F2C
:102AB00004D0802E07D94FF003040AE0802E08D9F5
:102AC000A02E01D804E001D1022402E0702E00D132
:102AD00001240848016821F00701214301600068D2
:102AE00000F00700A04201D00120F8BD0020F8BD91
:102AF000001002400020024070470000044910B559
:102B000001200860FEF7CAFCBDE81040FFF7E3BAF9
:102B100000000020F0B5B9B010202290012400255B
:102B2000CDE9284502266020CDE92C642A90282092
:102B30000727CDE92E40CDE93076329622A8FFF75F
:102B400077F800B1FEE70F2033900320CDE934057C
:102B50003695042133A83795FEF762FF00B1FEE7F2
:102B600044F20100009000071E901820CDE90240B9
:102B700001944FF080700E95CDE90660CDE90476A2
:102B80006846FEF775FD00B1FEE74FF40070FEF7F2
:102B900033FD00B1FEE7FEF7CFFF0A21B0FBF1F0F5
:102BA000FFF785FA0420FFF775FA00221146501E40
:102BB000FEF7F0FC39B0F0BD0D48016841F470013A
:102BC00001600C48016841F0010101600021816051
:102BD0000268094B1A4002608214C260026822F443
:102BE0008022026081610249C00380390860704719
:102BF00088ED00E000100240FFFFF6EA90F8241094
:102C0000C90706D001684A68836A22F400321A4371
:102C10004A6090F82410890706D501684A68C36A9B
:102C200022F480321A434A6090F82410490706D5EE
:102C300001684A68036B22F480221A434A6090F8C4
:102C40002410090706D501684A68436B22F4004244
:102C50001A434A6090F82410C90606D501688A68AC
:102C6000836B22F480521A438A6090F824108906FC
:102C700006D501688A68C36B22F400521A438A6041
:102C800090F82410490611D501684A68036C22F4B3
:102C900080121A434A60016CB1F5801F06D10168A9
:102CA0004A68436C22F4C0021A434A6090F8241028
:102CB000090606D501684A68806C22F400220243A6
:102CC0004A607047F8B5002604464667FEF7E0FB09
:102CD0000546206800686FF07E47000708D52B4640
:102CE00000224FF400112046009700F0CFF960B9A0
:102CF0002068006840070AD52B4600224FF4800167
:102D00002046009700F0C2F908B10320F8BD20204A
:102D100084F8710084F8720084F870600020F8BDB7
:102D200010B5806A0021A0F85A10A0F85210FFF7E1
:102D3000D7F910BD70B5846A94F871000025212878
:102D400008D120688068000604D5A4F852502046B7
:102D500000F042F894F87200222808D120688068B8
:102D6000400604D5A4F85A50204600F025F8606FBC
:102D700040F0100060672046FFF7B2F970BD10B553
:102D80000146806A0968096889060DD40021A0F807
:102D9000521001688A6822F080028A600068016827
:102DA00041F04001016010BDFFF72AFB10BD10B5D6
:102DB000806AFFF726FB10BD01680A6822F4907252
:102DC0000A6001688A6822F001028A60202180F886
:102DD000721000210166704701680A6822F0C00283
:102DE0000A60202180F87110704700002DE9F04141
:102DF0000446016880682369E66918436369102501
:102E0000002733431843954A0B68954E33400343DC
:102E10000B6020684168E36821F440511943416028
:102E20002168A069914201D0236A18438B6823F47A
:102E3000306303438B608B4B21688B4899420DD1E3
:102E4000D0F8880010F0030006D001285AD00228DC
:102E500056D0032859D157E0012556E0834B9942BB
:102E60000BD1D0F8880010F00C0047D0042849D0CE
:102E7000082845D00C2848D146E07D4B99420BD11B
:102E8000D0F8880010F0300038D010283AD0202830
:102E900036D0302839D137E0764B99420BD1D0F873
:102EA000880010F0C00029D040282BD0802827D0DF
:102EB000C0282AD128E0704B99420ED1D0F8880062
:102EC00010F440701AD0B0F5807F1BD0B0F5007FB1
:102ED00016D0B0F5407F18D116E0914215D1D0F848
:102EE000880010F4406009D0B0F5806F0AD0B0F5CA
:102EF000006F05D0B0F5406F07D105E0002504E074
:102F0000022502E0042500E008255C4B00264FF472
:102F1000004091423DD135B1022D07D0042D07D09C
:102F2000082D10D107E0FEF70DFE03E0184602E081
:102F3000FEF72CFEA8B3626802EB4201814202D880
:102F4000B0EB023F01D9012775E0DFF834815DB1B4
:102F5000022D0CD0042D13D0082DF4D150082905D2
:102F6000401846F1000105E0FEF7ECFD0AE05008CC
:102F70004449F5E70023FDF723F9A0F5407156E039
:102F8000FEF704FE6268010E030250081818714132
:102F9000F0E7E1694FF6EF7881422FD1092DD2D2C7
:102FA00000E048E0DFE805F00609200523050505F7
:102FB0002600C8E7FEF7C6FD01E0FEF7D5FD41009B
:102FC000D4F8040001EB5001B1FBF0F080B2A0F1A5
:102FD00010014145B7D84FF6F0710140C0F34200EF
:102FE00001432068C16026E027496068EAE7FEF7F0
:102FF000CDFDE4E74FF480316068E3E7092DA2D20C
:10300000DFE805F006091E052205050525009AE7FB
:10301000FEF798FD01E0FEF7A7FD0146606801EBB1
:10302000500100BFB1FBF0F080B2A0F110014145AA
:1030300089D82168C860266638466666BDE8F08192
:10304000606803EB5001EDE7FEF7A0FDE5E761687E
:1030500000EB5100B0FBF1F0E6E70000008000401B
:10306000F369FFEF003801400010024000440040C7
:1030700000480040004C0040005000400024F40094
:10308000FFFC0F00000024F40048E8012DE9F041A6
:10309000984617460E460446069D1DE0681C1BD048
:1030A0002DB1FEF7F5F9A0EB0800A84214D920686D
:1030B000016821F4D07101602068816821F001016C
:1030C0008160202084F8710084F87200002084F868
:1030D00070000320BDE8F0812068C06936EA000076
:1030E00004D00020B842D9D00020F3E70120F9E74E
:1030F0000148FEF7F7BF00007C000020FEE7FEE776
:1031000002E008C8121F08C1002AFAD170477047B0
:10311000002001E001C1121F002AFBD1704700000E
:103120008AB0FEF7C3F9FFF7F5FCFFF7DDF9314888
:10313000816C41F001018164806C002200F001008B
:10314000089011460E20FEF725FA0E20FEF716FA1B
:10315000002211460F20FEF71DFA0F20FEF70EFA8F
:10316000FFF782F9FFF740FB234C00252068012878
:10317000FCD122482560FDF797FE6068012834D114
:103180001E486560FDF72DFC40F6AC51484340F603
:10319000B831B0FBF1F11A48194A0A2300882232EB
:1031A000091A128801EB81010901101A91FBF0F153
:1031B0001E3191FBF3F0424202EB8202E16001EB2F
:1031C0004201A268303030310DF802000DEB0200F0
:1031D000D21C417083706E46A2601E2A05D107483A
:1031E00031466430A560FFF7C7F80448FDF718FFC3
:1031F000BCE7000000100240000000201800002082
:10320000A875FF1F00000000000000000102030479
:1032100006070809A0860100400D0300801A060079
:1032200000350C0040420F0080841E0000093D0064
:1032300000127A000024F40000366E010048E80114
:10324000006CDC0200000000010203046C32000884
:10325000000000201800000000310008843200083F
:103260001800002070050000103100080000000068
:10327000000000000000000000000000000000004E
:0432800000093D0004
:040000050800018965
:00000001FF
