:020000040800F2
:100000005812002059020008FB1A0008FB150008CE
:10001000F91A0008D5030008852200080000000036
:100020000000000000000000000000009D0100082A
:10003000D703000800000000F1010008451C00087B
:1000400073020008730200087302000873020008BC
:1000500073020008730200087302000873020008AC
:10006000730200087302000873020008730200089C
:10007000730200087302000873020008730200088C
:10008000730200087302000873020008730200087C
:10009000730200087302000873020008730200086C
:1000A0007302000873020008091D000873020008AB
:1000B000730200087302000873020008730200084C
:1000C000730200087302000873020008730200083C
:1000D000730200087302000873020008730200082C
:1000E000730200087302000873020008730200081C
:1000F000730200087302000873020008730200080C
:1001000073020008730200087302000873020008FB
:1001100073020008730200087302000873020008EB
:1001200073020008730200087302000873020008DB
:1001300073020008730200087302000873020008CB
:1001400073020008730200087302000873020008BB
:1001500073020008730200087302000873020008AB
:10016000730200087302000873020008730200089B
:100170007302000873020008000000000000000085
:100180007302000873020008DFF80CD000F0EEF8EC
:10019000004800473D240008581200202B4B1968E6
:1001A0000868B0E8F04F80F30988BFF36F8F4FF015
:1001B000000080F3118870470000000006480068C6
:1001C000006880F3088862B661B6BFF34F8FBFF353
:1001D0006F8F00DF00BF00BF08ED00E0DFF80C000C
:1001E000016841F470010160704700BF88ED00E0D4
:1001F000EFF30980BFF36F8F144B1A681EF0100FD6
:1002000008BF20ED108A20E9F04F106008B44FF0CD
:10021000500080F31188BFF34F8FBFF36F8F02F050
:100220008FFC4FF0000080F3118808BC1968086843
:10023000B0E8F04F1EF0100F08BFB0EC108A80F34A
:100240000988BFF36F8F704700BF00BF68000020B0
:10025000EFF30580704700000648804706480047D6
:10026000FEE7FEE7FEE7FEE7FEE7FEE7FEE7FEE766
:10027000FEE7FEE7C51C0008890100082DE9F05FD4
:100280000546002092469B46884606468146402405
:100290001BE0284641464746224600F057F85346A1
:1002A0005A46C01A914110D311461846224600F012
:1002B0003EF82D1A67EB01084F4622460120002127
:1002C00000F035F817EB00094E41201EA4F101049F
:1002D000DFDC484631462A464346BDE8F09F40EA07
:1002E00001039B0703D009E008C9121F08C0042AB4
:1002F000FAD203E011F8013B00F8013B521EF9D29B
:10030000704730B50B46014600202022012409E049
:1003100021FA02F59D4205D303FA02F5491B04FABE
:1003200002F52844151EA2F10102F1DC30BD202A9D
:1003300004DB203A00FA02F1002070479140C2F13C
:10034000200320FA03F3194390407047202A04DB6E
:10035000203A21FA02F00021704721FA02F3D0403E
:10036000C2F120029140084319467047064C074DE0
:1003700006E0E06840F0010394E807009847103475
:10038000AC42F6D3FFF704FF102F0008302F00080F
:1003900004490968002903D0096B002900D00847E7
:1003A000704700000000002070B5084D0024A868C8
:1003B00080476A2801D0012405E0054805602968C6
:1003C00044F230408847204670BD00000400002001
:1003D00000000020FEE770472DE9F84FDFF898B1E4
:1003E00000234FF0010C4FF0030A4FF00F090BF1FF
:1003F000040EB9E00CFA03F4224070D04D68022DCF
:1004000001D0122D0ED1DD0800EB8508D8F8205060
:100410005E07F70E09FA07F6B5430E69BE402E4394
:10042000C8F8206007685E0091F804800AFA06F5B3
:1004300008F00308AF4308FA06F848EA0708C0F8CE
:1004400000804F68012F05D0022F03D0112F01D05B
:10045000122F13D1D0F80880CF6828EA0508B740DA
:1004600047EA08078760D0F804800F7928EA040873
:10047000C7F300179F4047EA08074760D1F8048098
:100480006FEA0807BF0706D1C76AA743C8F3C004CD
:100490009C403C43C462C468AC438D68B54025436E
:1004A000C5604C68E4005ED5344C256E45F001050E
:1004B0002566246E23F0030504F001040094304CFB
:1004C0002E19B4689D072F0F09FA07F5AC43B0F158
:1004D000904F05D02B4DA84204D101251CE042E0ED
:1004E000002519E0284DA84201D1022514E0274D2E
:1004F000A84201D103250FE0254DA84201D10425D2
:100500000AE0244DA84201D1052505E0224DA8426C
:1005100001D1062500E00725BD402543B560DBF885
:1005200000405D464E689443F60300D514432C60AA
:10053000DEF8004075464E689443B60300D5144378
:100540002C600D4D08352C684E689443F60200D59A
:1005500014432C60084D0C352C684E689443B60249
:1005600000D514432C605B1C0A6832FA03F57FF453
:1005700041AFBDE8F88F00000004014000100240C8
:10058000000001400004004800080048000C00483A
:100590000010004800140048001800480148006896
:1005A000704700003C00002090F84120202A24D110
:1005B00090F84020012A20D0012280F840202422F7
:1005C00080F841200268136823F001031360026879
:1005D000136823F480531360026813680B4313609D
:1005E00001680A6842F001020A60202180F8411087
:1005F000002180F84010084670470220704710B56F
:10060000040013D0242084F841002068016821F000
:1006100001010160204600F0C9F90020606484F8FF
:10062000410044F8300FA074207410BD4FF40070E6
:100630006064012010BD000070B5040004D094F87F
:100640004100002528B109E04FF4007060640120EA
:1006500070BD84F84050204600F0A9F9242084F8A9
:1006600041002068016821F0010101606068216893
:1006700020F0706008612068816821F40041816089
:10068000E0680128A06807D040F404402168886031
:10069000E068022803D006E040F40040F6E7216855
:1006A0004FF40060486020684168114A114341607E
:1006B0002068C16821F40041C160D4E90401084305
:1006C000A16940EA01202168C860D4E90701084314
:1006D000216808602068016841F0010101606564DB
:1006E000202084F84100256384F84250002070BD2A
:1006F000008000022DE9FF4F83B00446DDE910873A
:1007000090F84100DDF848909A469346202873D12E
:100710005FEA080014D09FB194F8400001286BD024
:10072000012084F84000FFF739FF064601220090BF
:100730001923D103204601F02FF8002870D103E0DF
:100740004FF4007060646BE0222084F84100402088
:1007500084F8420000256564C4F8248067856563D9
:10076000CDE9009653465A462046049900F09AFF78
:1007700010B184F8405053E0618D3448FF274FF0AA
:1007800080784FF0007AFF2904D927853A464346FE
:10079000009005E0618D2185009094F82820534653
:1007A0002046049900F0E2FF4B4600220421204637
:1007B000009600F0F1FF98BB2068416A606A421C15
:1007C00062620170208D401E81B22185608D401EC5
:1007D0006085608DD8B1D1B94B460022802120467A
:1007E000009600F0D9FFD8B9608DFF2805D927857C
:1007F0003A464346009506E026E0608D2085009548
:1008000094F8282053462046049900F0AFFF608DED
:100810000028C9D132464946204600F0E9FF18B108
:10082000012007B0BDE8F08F21682020C861216851
:100830004A68074B1A404A6084F8410084F84250E5
:1008400084F840500020ECE70220EAE70024008012
:1008500000E800FE2DE9FF4F83B00446DDE9108774
:1008600090F84100DDF848909A469346202870D1D0
:100870005FEA080014D09FB194F84000012868D0C6
:10088000012084F84000FFF789FE0646012200900F
:100890001923D103204600F07FFF00286DD103E02B
:1008A0004FF40070606468E0212084F8410040202B
:1008B00084F8420000256564C4F824806785656378
:1008C000CDE9009653465A462046049900F01CFF95
:1008D00010B184F8405050E0608DFF274FF08078D1
:1008E0004FF0007AFF2804D927853A464346009501
:1008F00005E0608D2085009594F828205346204619
:10090000049900F033FF32464946204600F096FF36
:1009100098BB606A411C6162216800788862608DC2
:10092000401E6085208D401E80B22085618DD9B12A
:10093000D0B94B46002280212046009600F02CFFC3
:10094000D8B9608DFF2805D927853A4643460095DA
:1009500006E026E0608D2085009594F82820534617
:100960002046049900F002FF608D0028CBD132466A
:100970004946204600F03CFF18B1012007B0BDE811
:10098000F08F21682020C86121684A68064B1A4010
:100990004A6084F8410084F8425084F840500020B6
:1009A000ECE70220EAE7000000E800FE704770472D
:1009B00002480168491C0160704700003C000020AB
:1009C00010B5032000F0AEF8002000F005F800F0AC
:1009D0003DF8002010BD000000B5014687B00022A0
:1009E0001A2000F07FF81A2000F070F81348016E0A
:1009F00041F480210166006E05A900F48020069074
:100A0000684600F065F900F099F90D490D4AB0FB10
:100A1000F1F10D48491E0260416040F2E7320021C9
:100A2000C0E90321816000F054FC10B1012007B03F
:100A300000BD054800F06AFCF9E700000010024024
:100A400040420F00004801406C0100201E4808B5DC
:100A5000016E41F001010166016E01F0010100919A
:100A6000816D41F080518165806D00F08050009073
:100A7000032000F057F8002211466FF00B0000F041
:100A800031F8002211466FF00A0000F02BF8002226
:100A900011466FF0090000F025F800221146501FA2
:100AA00000F020F800221146101F00F01BF8002271
:100AB0000F21901E00F016F800220F21BDE808401B
:100AC000501E00F00FB800000010024000F01F029E
:100AD000012191404009800000F1E020C0F80011A0
:100AE00070470000F0B40E4B1B680C46C3F30223A2
:100AF000C3F10705042D00D90425191D072901D2CA
:100B0000002300E0DB1E012606FA05F1491E214004
:100B100099409E40761E16403143F0BC00F0EEBF77
:100B20000CED00E0064900F0070208684FF6FF03ED
:100B3000184040EA0220034A104308607047000052
:100B40000CED00E00000FA051549B0F5007F0868DB
:100B5000C0F3412009D0022805D0086820F4C06005
:100B600040F480600860002070470128FBD00868CE
:100B700020F4C06040F4007008600A480A4A006827
:100B8000B0FBF2F03222504300E0401E10B14A693F
:100B90005205FAD448694005E5D5032070470000A6
:100BA000007000404000002040420F0002480068F2
:100BB00000F4C06070470000007000402DE9F0476D
:100BC0000F46050058D03E4E306800F00700B8428E
:100BD00009D2306820F0070038433060306800F0F8
:100BE0000700B84248D12878364CC0072CD0686836
:100BF000032811D0022812D0216898B14905002994
:100C00003ADAA16821F003010143A160FFF7C6FCB5
:100C1000804641F2883910E021688901EFE72168B8
:100C20008903ECE78907EAE7FFF7B8FCA0EB0801C6
:100C3000494502D90320BDE8F087A068696800F043
:100C40000C00B0EB810FEFD12878800705D5A068A4
:100C5000A96820F0F0000843A060306800F00700A9
:100C6000B8420BD9306820F0070038433060306854
:100C700000F00700B84201D00120DCE728784007E7
:100C800005D5A068E96820F4E0600843A0602878F2
:100C9000000706D5A068296920F4605040EAC10029
:100CA000A06000F05BF8A168074AC1F30311515C32
:100CB000C840064908600020FFF78EFE0020BAE712
:100CC0000020024000100240BC2E0008400000201E
:100CD0000F2202600C4A936803F003034360936899
:100CE00003F0F0038360936803F4E063C3609268E9
:100CF0004FF4E06303EAD20202610448006800F0A6
:100D00000700086070470000001002400020024009
:100D10000148006870470000400000200448054971
:100D200000688968044AC1F30221515CC8407047D9
:100D30004000002000100240FC2E00080448054935
:100D400000688968044AC1F3C221515CC8407047F9
:100D50004000002000100240FC2E000830B52D4954
:100D6000002318468A682C4C12F00C0F4FEA6405D9
:100D700014D08A68C2F38102032A04D1CA6802F03F
:100D80000302012A0AD08A68C2F38102012A19D01B
:100D90008A68C2F38102022A16D016E00A68120796
:100DA00004D4D1F89420C2F3032202E00A68C2F30B
:100DB00003121A4B53F822308A6812F00C0F04D138
:100DC000184602E0204600E028468A68C2F3810205
:100DD000032A1DD1C868CA6800F00300C2F30212DA
:100DE000521C022804D0032805D0B3FBF2F004E023
:100DF000B4FBF2F001E0B5FBF2F0CA68C968C2F3D7
:100E000006225043C1F34161491C4900B0FBF1F097
:100E100030BD0000001002400024F400CC2E000879
:100E20002DE9F84304007DD02078FF4DC0065DD544
:100E3000A86810F00C0F0AD0A0690028286873D0A9
:100E400040F001002860FFF7A9FB064655E028683E
:100E5000800702D5A0690028E5D0216A286800072C
:100E600003D5286800F0F00004E0D5F89400F022E3
:100E700002EA1010814216D9084600F04FFE002801
:100E800050D1286840F0080028602868216A20F0C6
:100E9000F000084328606868E16920F47F4040EA78
:100EA0000120686015E0286840F008002860286884
:100EB000216A20F0F000084328606868E16920F4A6
:100EC0007F4040EA01206860206A00F027FE002889
:100ED000D6D1FFF743FFA968D44AC1F30311515C8F
:100EE000C840D34908600020FFF776FD2CE000BF22
:100EF000FFF754FB801B02287ED828688007F7D5AF
:100F0000286840F0080028602868216A20F0F00076
:100F1000084328606868E16920F47F4040EA0120C6
:100F2000686011E0B2E0FFE720F001002860FFF701
:100F300035FB064605E000BFFFF730FB801B0228AB
:100F4000DAD828688007F7D42078C00748D0A86886
:100F5000C0F3810002281DD0A868C0F381000328D7
:100F600003D1E868C043800714D06068B0F5803FC3
:100F700017D0B0F5A02F286817D020F48030286053
:100F8000286820F4802028606068E0B1FFF706FB45
:100F9000064614E02868800322D56068002875D0D2
:100FA0001EE0286840F48030EDE740F4802028609F
:100FB000F7E700BFFFF7F2FA801B64289CD8286887
:100FC0008003F7D50CE0FFF7E9FA064605E000BF1D
:100FD000FFF7E4FA801B64288ED828688003F7D4D2
:100FE0002078800742D5A868C0F38100012816D078
:100FF000A868C0F3810000E0A9E0032804D1E868F4
:1010000000F0030002280AD0E068002828681DD0FC
:1010100040F480702860FFF7C1FA06460BE02868AC
:1010200040050BD5E0680028B9D007E0FFF7B6FA15
:10103000801B022884D828684005F7D56868217C81
:1010400020F0F85040EA016068600FE020F4807002
:101050002860FFF7A3FA064605E000BFFFF79EFAF7
:10106000801B022873D828684005F7D42078000731
:1010700029D560690028D5F8940013D040F001000C
:10108000C5F89400FFF78AFA064606E0FBE000BFC9
:10109000FFF784FA801B022859D8D5F894008007FE
:1010A000F6D510E020F00100C5F89400FFF776FABD
:1010B000064604E0FFF772FA801B022847D8D5F8ED
:1010C00094008007F6D42078400763D5A86D0026E9
:1010D000C00008D4A86D40F08050A865A86D012616
:1010E00000F08050009053480168C90511D4016890
:1010F000804641F480710160FFF750FA074604E032
:10110000FFF74CFAC01B022821D8D8F80000C00510
:10111000F6D5A068012815D00528D5F8900017D07D
:1011200020F00100C5F89000D5F8900020F00400F0
:10113000C5F89000A06841F28838C8B1FFF72EFAD0
:10114000074610E0D5F8900040F00100F0E777E0A6
:1011500040F00400C5F89000F4E700BFFFF71EFA66
:10116000C11B41456CD8D5F890008007F6D50CE03E
:10117000FFF714FA074604E0FFF710FAC11B4145D8
:1011800079D8D5F890008007F6D41EB1A86D20F06C
:101190008050A865A06AE0B3A968C1F38101032962
:1011A00072D00228286820F08070286011D028684A
:1011B000000106D42868800003D4E86820F003000A
:1011C000E860E8681C490840E860FFF7E7F9044672
:1011D00054E0FFF7E3F9064605E000BFFFF7DEF94C
:1011E000801B022847D828688001F7D4206BE16A69
:1011F000000110380843616BA26B0902120941EA31
:1012000042410843A18F0D4A490802EB415108436E
:1012100000E036E094F840104908120102EB416109
:101220000843E86028680CE000100240BC2E00086B
:101230004000002000700040FFFFEEFE0000E0FFD5
:1012400019E040F080702860E86840F08070E86045
:10125000FFF7A4F9044604E0FFF7A0F9001B0228F9
:1012600009D828688001F7D50BE000BFFFF796F991
:10127000001B022802D90320BDE8F88328688001FA
:10128000F4D40020F8E7FFE70120F5E74FF0E02174
:101290000428086903D020F004000861704740F07A
:1012A0000400FAE710B5401EB0F1807F01D30120A1
:1012B00010BD4FF0E02460610F21601700F01EFCAC
:1012C0000020A06107202061002010BD70477047FA
:1012D000704710B5040003D094F83D0010B107E04A
:1012E000012010BD002084F83C00204600F00CF8DE
:1012F000022084F83D00211D206800F00BFD012034
:1013000084F83D00002010BD704700000168CA68E5
:1013100042F00102CA600068826807490A40062A52
:1013200008D082680A40B2F5803F03D0016841F0DE
:10133000010101600020704707000100704770B58F
:101340000446006801694FF00005C943890715D4B8
:10135000C168C943890711D4E91E016101202077C2
:10136000206880698007204602D0FFF7E7FF04E08D
:1013700000F0A7F8204600F0A5F82577206801695D
:10138000C943490717D4C168C943490713D46FF04B
:1013900004010161022020772068806910F4407FF9
:1013A000204602D0FFF7CAFF04E000F08AF820468A
:1013B00000F088F8257720680169C943090716D429
:1013C000C168C943090712D46FF008010161042004
:1013D00020772068C0698007204602D0FFF7AEFF63
:1013E00004E000F06EF8204600F06CF825772068E5
:1013F0000169C943C90617D4C168C943C90613D4D2
:101400006FF010010161082020772068C06910F496
:10141000407F204602D0FFF791FF04E000F051F832
:10142000204600F04FF8257720680169C943C907B5
:1014300008D1C168C943C90704D1891E016120468A
:1014400000F042F820680169C943090609D4C1685F
:10145000C943090605D46FF0800101612046FFF7FA
:1014600036FF20680169C943C90509D4C168C94369
:10147000090605D46FF4807101612046FFF726FF4D
:1014800020680169C943490609D4C168C9434906AE
:1014900005D46FF040010161204600F01FF820687C
:1014A0000169C94389060BD4C168C943890607D4B9
:1014B0006FF0200101612046BDE87040FFF708BFD2
:1014C00070BD70477047000000680349884201D131
:1014D000FFF76EBA7047000000480140704710B532
:1014E000040003D094F8710010B107E0012010BD92
:1014F000002084F87000204600F026F8242084F8AC
:1015000071002068016821F001010160204600F0AF
:10151000F3FC0128EBD0606A10B1204600F05AFCC1
:101520002068416821F4904141602068816821F081
:101530002A0181602068016841F0010101602046B4
:10154000BDE8104000F0AABC70472DE9F8430446FE
:1015500090F871001F4616460D4620284BD1C5B1A4
:10156000BEB194F87000012845D0012084F87000C5
:101570004FF00008C4F87480212084F87100FFF750
:101580000DF8A4F850608146A4F852604FF48056DC
:1015900015E00120BDE8F8838021204600F0FCFD25
:1015A000D8B9A068B04201D12069C0B115F8010BCB
:1015B00021680885B4F85200401EA4F85200B4F81F
:1015C00052004B464FF0000200970028E4D14FF044
:1015D0004001204600F0E0FD30B10320DAE735F8A5
:1015E000020BC0F30800E3E7202084F8710084F8C0
:1015F00070800020CEE70220CCE7FEE701688A6910
:10160000D243920701D400228A6200688169C943EB
:10161000C90703D0816941F0010181617047000071
:101620002DE9F0410446006890460E468069C043AB
:10163000C00633D40025202720688069C043800677
:1016400015D5701CF8D0FEF7A9FFA0EB0800B0423A
:1016500001D8002EF0D154F8440F40F0200044F897
:1016600004096770A57025700120BDE8F08121682C
:101670001020C8612068C7612046FFF7BFFF54F8FB
:10168000440B4168064A11404160206840F0040064
:1016900044F820096777A5772577E5E70020E4E798
:1016A00000E800FE2DE9F84304461646DDE90897F8
:1016B00014489846DAB200900023204600F056F80D
:1016C0003A464946204600F0B9F8B8B9F5B2B8F143
:1016D000010F08D02168300A88623A464946204600
:1016E00000F0ACF850B9206885624B4600224021DA
:1016F0002046009700F050F8002800D00120BDE8F7
:10170000F8830000002000802DE9F84304461646C7
:1017100015489846DDE90897DAB2C30200902046E2
:1017200000F024F83A464946204600F087F8B8B958
:10173000F5B2B8F1010F08D02168300A88623A4644
:101740004946204600F07AF850B9206885624B4639
:10175000002280212046009700F01EF8002800D0CB
:101760000120BDE8F883000000200080F0B5056886
:10177000059C68684FF48066064FC1F3090106EACC
:10178000545641EA02413E431943B04321430843C2
:101790006860F0BDFF63FF032DE9F0411D46174669
:1017A0000E460446DDF8188008E0681C06D0FEF7F7
:1017B000F5FEA0EB0800A8420BD855B1206880695F
:1017C00036EA000012D00020B842EED00020BDE87A
:1017D000F08154F8440F40F0200044F80409202020
:1017E00060700020A07020700120F0E70120EBE77E
:1017F00070B516460D4604460DE032462946204691
:10180000FFF70EFF08B1012070BDFEF7C7FE801B79
:10181000A84207D835B120688069C0438006ECD45F
:10182000002070BD54F8440F40F0200044F8040933
:10183000202060700020A0702070E4E770B516468C
:101840000D4604460FE0324629462046FFF7E8FEE3
:1018500008B1012070BD681C05D0FEF79FFE801BFB
:10186000A84207D835B120688069C0438007EAD410
:10187000002070BD54F8440F40F0200044F80409E3
:10188000202060700020A0702070E2E710B50446B0
:10189000FEF7B5FE2046BDE8104000F001B800009C
:1018A00010B504460B4820600B4860600020012101
:1018B000C4E9020120616061E0612062204600F01D
:1018C0000DF82046FEF7B8FE2046BDE81040002186
:1018D000FEF76ABE005800408126700030B5204CEB
:1018E00087B0E06C40F00200E064E06C1D4D00F059
:1018F000020005904FF440600090122001900120FA
:101900000290032003900420049069462846FEF7C5
:1019100063FD69462846FEF75FFDA06D40F4800038
:10192000A065A06D00F480000590A06B40F48000DD
:10193000A063A06B20F48000A06300220F2121206F
:10194000FFF7D0F82120FFF7C1F800220F21222055
:10195000FFF7C8F82220FFF7B9F807B030BD000044
:101960000010024000040048FEB50D460646DDE9C1
:1019700008014FF47A748DE8130029463046FEF7CB
:10198000B9FE040003D029463046FFF77FFF20460A
:10199000FEBDFEB50D460646DDE908014FF47A743A
:1019A0008DE8130029463046FEF754FF040003D0AB
:1019B00029463046FFF76AFF2046FEBD10B51021CC
:1019C000D42000F0EFF820F0F0021021BDE8104024
:1019D000D42000F005B910B504461021D42000F041
:1019E000E1F820F0FC02E1B20A431021D42000F01B
:1019F000F7F81221D42000F0D5F820F0440242EA92
:101A000014221221BDE81040D42000F0E9B810B52E
:101A100004461521D42000F0C5F820F010020CB1C6
:101A200042F010021521BDE81040D42000F0D8B8D3
:101A300010B500F0B1F80F21BDE81040D42000F03F
:101A4000B1B8000070B505462DED028B86B00024BC
:101A50009FED248A1021D42000F0A4F80646062326
:101A600003AA2821D42000F0AFF803A80DF1040246
:101A700000EB440310F814105B7801EB032122F80B
:101A80001410641CE4B2032CF2D316F00C0006D040
:101A900004280DD0082805D00C280BD105E09FEDB7
:101AA000128A07E09FED118A04E09FED118A01E0A0
:101AB0009FED108A5FF0000132F9110000EE100A6C
:101AC000B8EEC00A20EE080ABDEEC00A10EE100AF9
:101AD00025F81100491CC9B20329EDD306B0BDECAD
:101AE000028B70BD0000000023DB793D23DBF93D54
:101AF00023DB793E23DBF93EFEE770470907090E39
:101B0000002806DA00F00F0000F1E02080F8141D34
:101B1000704700F1E02080F800147047F8B51C4DC4
:101B200006460024A86DC00002D5FFF73FF80DE07F
:101B3000A86D40F08050A865A86D00F0805000901E
:101B4000FFF734F8A96D21F08051A965B0F5007F49
:101B500004D0802E07D94FF003040AE0802E08D964
:101B6000A02E01D804E001D1022402E0702E00D1A1
:101B700001240848016821F0070121430160006841
:101B800000F00700A04201D00120F8BD0020F8BD00
:101B900000100240002002400148FFF781BE000013
:101BA000A80000200EB500228DF80820012302AA0B
:101BB000CDE900230A4601460248FFF7D5FE9DF80D
:101BC00008000EBDA80000201CB5CDE900230A4680
:101BD000014601230148FFF7C7FE1CBDA8000020F5
:101BE00007B582B0012304AACDE900230A460146C5
:101BF0000248FFF7CEFE05B000BD0000A80000209F
:101C00001CB500F0FBFAFEF7CFFB642000F034FCBB
:101C10006846FEF7BDFBBDF90430BDF90220BDF9F1
:101C2000001002A000F030FBEFE7000058203D203C
:101C300025642C2059203D2025642C205A203D204D
:101C400025640A0000F024BC10B596B01020009066
:101C50000120002460210690CDE907410221CDE951
:101C60000A100C9028200D900720CDE90E0168463F
:101C70001091FFF7D5F800B1FEE70F201190032077
:101C8000CDE912041494042111A81594FEF796FFCF
:101C900000B1FEE74FF40070FEF756FF00B1FEE71B
:101CA000FFF736F84FF47A71B0FBF1F0FFF7FAFA6C
:101CB0000420FFF7EBFA00220F21501EFEF712FF5F
:101CC00016B010BD0D48016841F4700101600C4868
:101CD000016841F001010160002181600268094B47
:101CE0001A4002608214C260026822F480220260FC
:101CF00081610249C00380390860704788ED00E0C7
:101D000000100240FFFFF6EA0148FFF718BB000091
:101D10006C0100202DE9F0470268264B264D274E26
:101D2000274F284C4FF0804A984209D0504507D0A1
:101D3000A84205D0B04203D0B84201D0A04204D19D
:101D400022F0700C4A6842EA0C02DFF87CC0DFF82F
:101D50007C80DFF87C9098420FD050450DD0A8428F
:101D60000BD0B04209D0B84207D0A04205D06045A0
:101D700003D0404501D0484503D122F44075CA68DC
:101D80002A434D6922F080022A4302608A68C262B7
:101D90000A688262984207D0A04205D0604503D00D
:101DA000404501D0484501D10969016301214161E4
:101DB000BDE8F087002C014000040040000800400E
:101DC000000C00400034014000400140004401404C
:101DD0000048014090F82410C90706D001684A68FD
:101DE000836A22F400321A434A6090F8241089076B
:101DF00006D501684A68C36A22F480321A434A60F1
:101E000090F82410490706D501684A68036B22F44C
:101E100080221A434A6090F82410090706D5016809
:101E20004A68436B22F400421A434A6090F8241037
:101E3000C90606D501688A68836B22F480521A436A
:101E40008A6090F82410890606D501688A68C36BF9
:101E500022F400521A438A6090F82410490611D5E2
:101E600001684A68036C22F480121A434A60016CCC
:101E7000B1F5801F06D101684A68436C22F4C002A4
:101E80001A434A6090F82410090606D501684A688A
:101E9000806C22F4002202434A607047F8B50026A5
:101EA00004464667FEF77AFB0546206800686FF037
:101EB0007E47000708D52B4600224FF4001120462C
:101EC000009700F069F960B92068006840070AD5FA
:101ED0002B4600224FF480012046009700F05CF969
:101EE00008B10320F8BD202084F8710084F8720046
:101EF00084F870600020F8BD2DE9F04104460168C7
:101F000080682369E6691843636910250027334315
:101F10001843954A0B68954E334003430B60206885
:101F20004168E36821F44051194341602168A06988
:101F3000914201D0236A18438B6823F43063034332
:101F40008B608B4B21688B4899420DD1D0F888006B
:101F500010F0030006D001285AD0022856D00328DA
:101F600059D157E0012556E0834B99420BD1D0F867
:101F7000880010F00C0047D0042849D0082845D02C
:101F80000C2848D146E07D4B99420BD1D0F888000F
:101F900010F0300038D010283AD0202836D0302821
:101FA00039D137E0764B99420BD1D0F8880010F048
:101FB000C00029D040282BD0802827D0C0282AD183
:101FC00028E0704B99420ED1D0F8880010F4407090
:101FD0001AD0B0F5807F1BD0B0F5007F16D0B0F5D9
:101FE000407F18D116E0914215D1D0F8880010F446
:101FF000406009D0B0F5806F0AD0B0F5006F05D011
:10200000B0F5406F07D105E0002504E0022502E0AD
:10201000042500E008255C4B00264FF40040914267
:102020003DD135B1022D07D0042D07D0082D10D198
:1020300007E0FEF773FE03E0184602E0FEF78EFEAF
:10204000A8B3626802EB4201814202D8B0EB023FC2
:1020500001D9012775E0DFF834815DB1022D0CD084
:10206000042D13D0082DF4D150082905401846F14D
:10207000000105E0FEF752FE0AE050084449F5E78A
:102080000023FEF7FBF8A0F5407156E0FEF766FE70
:102090006268010E0302500818187141F0E7E16907
:1020A0004FF6EF7881422FD1092DD2D200E048E0DF
:1020B000DFE805F006092005230505052600C8E729
:1020C000FEF72CFE01E0FEF739FE4100D4F80400D3
:1020D00001EB5001B1FBF0F080B2A0F110014145DD
:1020E000B7D84FF6F0710140C0F3420001432068B9
:1020F000C16026E027496068EAE7FEF72FFEE4E7C3
:102100004FF480316068E3E7092DA2D2DFE805F0E3
:1021100006091E052205050525009AE7FEF7FEFDC6
:1021200001E0FEF70BFE0146606801EB500100BFC5
:10213000B1FBF0F080B2A0F11001414589D82168CF
:10214000C860266638466666BDE8F081606803EBC5
:102150005001EDE7FEF702FEE5E7616800EB510094
:10216000B0FBF1F0E6E7000000800040F369FFEF0C
:102170000038014000100240004400400048004088
:10218000004C0040005000400024F400FFFC0F0011
:10219000000024F40048E8012DE9F0419846174674
:1021A0000E460446069D1DE0681C1BD02DB1FEF7AF
:1021B000F5F9A0EB0800A84214D92068016821F4C1
:1021C000D07101602068816821F0010181602020C8
:1021D00084F8710084F87200002084F870000320F5
:1021E000BDE8F0812068C06936EA000004D0002014
:1021F000B842D9D00020F3E70120F9E710B51E4816
:1022000086B01C4901604FF4E131416000218160DA
:102210000C22C160C0E904128161C16101624162A6
:102220001648C26C42F00202C264C26C02F00202A2
:102230000592026E42F480420266006E104C00F479
:1022400080400590402000900220CDE902100190CE
:102250000720049069462046FEF7BEF880200090D3
:1022600069462046FEF7B8F80348FFF738F906B08C
:1022700010BD000000380140F400002000100240B2
:1022800000040048FEE700000FB4054B10B503A999
:10229000044A029800F018F810BC5DF814FB000026
:1022A0001D240008A400002002E008C8121F08C175
:1022B000002AFAD170477047002001E001C1121FC7
:1022C000002AFBD1704700002DE9FF4F89B09B46E3
:1022D0000446002506E025280BD05A460B99904766
:1022E000641C6D1C20780028F5D10DB02846BDE88F
:1022F000F08F0027B8460122474900E0074314F851
:10230000013F203B02FA03F00842F7D120782E2843
:1023100019D114F8010F47F004072A280ED06FF0E6
:102320002F022078A0F1300109290CD808EB880190
:1023300002EB410100EB0108641CF2E70A98641CFF
:1023400050F8048B0A9020780028CED0642808D05A
:10235000692806D075281ED05A460B9990476D1CE7
:1023600058E00A994FF00A0901C90A91002802DAD7
:1023700040422D2102E0390504D52B218DF8201093
:10238000012103E0F90704D02021F7E78A4608AECF
:102390000DE00021FAE70A994FF00A0901C90A91F4
:1023A000F7E74946FDF7ADFF303106F8011D00287B
:1023B000F7D1ADEB060000F12009780701D44FF00A
:1023C0000108C84502DDA8EB090000E000208046B6
:1023D000002706E008A85A46C05D0B9990476D1C7F
:1023E0007F1C5745F6DB04E030205A460B99904796
:1023F0006D1CB8F10001A8F10108F5DC05E016F844
:10240000010B5A460B9990476D1CB9F10001A9F1D7
:102410000109F4DC641C65E70928010013B547F2E3
:1024200030542346012269460348FFF78EF80028FE
:10243000F7D100981CBD0000F400002086B0FEF724
:10244000BFFAFFF701FC142206496846FDF747FF73
:102450000021684600F026F80349086000F013F8F0
:10246000FEE70000A82E00083800002001460020EA
:10247000842900D0C81C704710B500B9012000F0B5
:10248000FDFA002010BD10B500F01EFB002010BDAD
:1024900010B500F035FC012803D0BDE8104000F075
:1024A000EDBB10BD3EB504460D46B0F90800FFF780
:1024B000DDFF02A9CDE90001208A2B4682B2D4E9D2
:1024C000001000F0F1FB012801D000203EBD029871
:1024D0003EBD00002DE9F041184C0F460546E66868
:1024E0002068001D00F014FA38B9206890F82C100C
:1024F00001208840216981432161681C07D137B1DF
:102500002168BDE8F0410E48091D00F039BA206885
:102510003544B5424560216805D2A06BBDE8F04165
:10252000091D00F015BA606B091D00F011FAA06AD0
:10253000854200D2A562BDE8F0810000680000205D
:10254000400E00202DE9F041054600F025FA2E4C02
:10255000A068401CA06020682C4F10B1606940B397
:102560002DE02560A068012829D1002606EB860011
:1025700007EB800000F0DEF9761C072EF6D3234827
:102580008C3000F0D7F92148A03000F0D3F91F4873
:10259000B43000F0CFF91D48C83000F0CBF91B482B
:1025A000DC3000F0C7F919488C3060631430A06348
:1025B00005E02068E96AC06A884200D82560606A40
:1025C000401C6062E96A0120226988401043206152
:1025D00001EB810007EB8000291D00F0D1F900F02C
:1025E000FBF9606900280CD02068E96AC06A88425B
:1025F00007D207494FF080500860BFF34F8FBFF3F9
:102600006F8FBDE8F081000068000020640D00209D
:1026100004ED00E070B5114E114C17E000F088FA9F
:102620003068B8B100F0DEFB00F0B6F9F068C568BC
:10263000281D00F06DF9A068401EA0606068401E73
:10264000606000F0C9F9284600F00CF860680028C6
:10265000E4D170BD00F0C6FBF8E700002C0E0020AE
:102660006800002010B50446006B00F0C9F9204650
:10267000BDE8104000F0C4B90F4840F6B831420739
:1026800005D0C01D0C4A20F00700821A891A0B4A97
:1026900000230144C2E900030839103A21F0070180
:1026A00011604B600B600B1AC0E9001393604FF090
:1026B00000405360D0607047AC01002054000020FF
:1026C000074C4FF08056074DFFF7A4FF2068012804
:1026D000FAD92E60BFF34F8FBFF36F8FF4E700007E
:1026E000640D002004ED00E02DE9F0479A46DDE995
:1026F000098481466FF00303206B03EB82021044D0
:10270000089D20F00706700707D0502080F311883D
:10271000BFF34F8FBFF36F8FFEE723180A5C83F878
:1027200034200A5C12B1401C1028F6D3002784F82C
:102730004370072D00D30625E562C4E91157201D1B
:1027400000F003F904F1180000F0FFF82461C5F16E
:1027500007006462A061E76484F8507052464946FD
:10276000304600F0BFF82060B8F1000F01D0C8F883
:102770000040BDE8F087000030B5114900E0114687
:102780000A688242FBD34B685C18844203D14068DC
:1027900018444860084643681C18944209D1084C04
:1027A000103C2468A24209D052681A4442600A6868
:1027B00012680260814200D0086030BD0460F9E711
:1027C000540000200648416B096829B1416BC96873
:1027D000C9684968816270474FF0FF31FAE700002D
:1027E0006800002008484068401C4FF0500080F30B
:1027F000118804D0BFF34F8FBFF36F8FFEE7BFF395
:102800004F8FBFF36F8FFEE75C0000202DE9F04192
:102810000546002700F08CF9314E306808B9FFF703
:102820002BFFF06805424BD1C5B3083568070ED0C1
:1028300005F00700C0F108000544680707D05020E4
:1028400080F31188BFF34F8FBFF36F8FFEE72DB377
:102850007068854234D82248103001460C6801E087
:1028600020460C466168A94202D221680029F7D1AE
:1028700031688C4224D0076821680160606808379D
:10288000411B10290FD96019420708D0502080F34E
:102890001188BFF34F8FBFF36F8FFEE710E04160E9
:1028A0006560FFF769FF61687068401A7060B26820
:1028B000904200D2B060F06801430020C4E90001FA
:1028C00000F090FA780707D0502080F31188BFF30A
:1028D0004F8FBFF36F8FFEE73846BDE8F0810000F1
:1028E0004400002010B5031F4FF080741C601B1FB4
:1028F00021F001011960191F044B0B6014390A60A3
:10290000091F6FF0020244380A6010BDE527000875
:10291000D0E9013201699A60D0E901235A604A681E
:10292000824201D182684A60002202610868401E2A
:102930000860704700F108014FF0FF32C0E9011252
:10294000C160016100210160704700210161704791
:1029500030B50B685A1C02D000F1080202E002698F
:1029600004E02246546825689D42FAD953684B60BA
:1029700099608A60516008610168491C016030BD3E
:1029800042684A6093688B609368596091600861FF
:102990000168491C01607047502080F31188BFF323
:1029A0004F8FBFF36F8F0A494868401C4860012869
:1029B0000CD10848006810F0FF0F07D0502080F3BA
:1029C0001188BFF34F8FBFF36F8FFEE77047000092
:1029D0005C00002004ED00E00849486828B1401E72
:1029E000486001D180F311887047502080F311882E
:1029F000BFF34F8FBFF36F8FFEE700005C00002036
:102A000070B5002827D0144DA0F108046168E8686B
:102A1000014207D1502080F31188BFF34F8FBFF3DD
:102A20006F8FFEE722683AB1502080F31188BFF320
:102A30004F8FBFF36F8FFEE78143616000F078F83E
:102A400060686968084468602046FFF795FEBDE845
:102A5000704000F0C7B970BD4400002006484FF434
:102A60007A710068B0FBF1F14FF0E020491E41613E
:102A700007210161704700004000002010B50200EE
:102A800014D00F48006B38B1502080F31188BFF389
:102A90004F8FBFF36F8FFEE700F04AF8002110461A
:102AA000FFF718FD00F09EF9002807D105494FF007
:102AB00080500860BFF34F8FBFF36F8F10BD0000D1
:102AC0006800002004ED00E01CB515480024CDE9A5
:102AD00000402346802213A1144800F0E5F80128A5
:102AE00009D0401C1AD1502080F31188BFF34F8FBA
:102AF000BFF36F8FFEE7502080F31188BFF34F8F35
:102B0000BFF36F8F06484FF0FF312C3881620121EF
:102B10004161C460BDE81C4000F040B81CBD00002D
:102B20009400002049444C4500000000C1260008E4
:102B30000248016B491C01637047000068000020D7
:102B40001448016B11B10121C16170470021C161BD
:102B50000169B1FA81F1C1F11F0101EB81020E4956
:102B600051F822306BB101EB820101F108034A6890
:102B700052684A609A4201D152684A60D168016045
:102B80007047502080F31188BFF34F8FBFF36F8FD2
:102B9000FEE7000068000020640D00201CB53248EC
:102BA0000168324A914207D1502080F31188BFF367
:102BB0004F8FBFF36F8FFEE700682C49491E884294
:102BC00007D1502080F31188BFF34F8FBFF36F8F71
:102BD000FEE7274908780190FF20087008788DF8F3
:102BE00000009DF800009DF8002000F0F0009042E9
:102BF00007D0502080F31188BFF34F8FBFF36F8F42
:102C0000FEE79DF800001B4A00F0500010700720FE
:102C1000906005E09DF800305B008DF80030401EAC
:102C20009DF800301B06F5D4000200F4E0609060CF
:102C3000019808700C482030016841F4700101606F
:102C4000016841F070410160FFF708FF002050600B
:102C5000FDF7C4FA0848016841F040410160FDF702
:102C6000ADFA00201CBD000000ED00E071C20F4174
:102C700000E400E05C00002034EF00E010B55020DC
:102C800080F31188BFF34F8FBFF36F8F00F046F8CA
:102C900018B104494FF080500860002080F311887B
:102CA00010BD000004ED00E02DE9FF5F8346DDE983
:102CB0000E87994616468A469000FFF7A7FD050045
:102CC0001AD05420FFF7A2FD040012D02563002182
:102CD000CDE90241CDE900874B4632465146584680
:102CE000FFF702FD2046FFF72DFC012004B0BDE8F0
:102CF000F09F2846FFF784FE4FF0FF30F6E7000014
:102D00000548416919B1006B18B1002070470120D6
:102D10007047022070470000680000202DE9F04154
:102D20002E4C0027206B40B1A069401CA061E069D7
:102D300000B101273846BDE8F081E668761CE66000
:102D400013D1606B006838B1502080F31188BFF355
:102D50004F8FBFF36F8FFEE7606BA16B6163A06362
:102D6000206A401C2062FFF72DFDA06ADFF870800A
:102D7000864209D3606B006880B1606BC068C5682B
:102D8000686886420DD2A0622068C06A00EB8001AC
:102D900058F821000128CAD90127C8E74FF0FF30B1
:102DA000F1E7281DFFF7B4FDA86A18B105F1180076
:102DB000FFF7AEFDE86A01212269814011432161DC
:102DC00000EB800108EB8100291DFFF7D9FDE86ABF
:102DD0002168C96A8842CDD30127CBE7680000206B
:102DE000640D00202DE9F0472C4D00242746286B68
:102DF00038B1FFF7D1FD286B401E2863286B40B126
:102E000046E0502080F31188BFF34F8FBFF36F8FE0
:102E1000FEE7A968224E0120D1B3A6F1B40980468D
:102E20003068E8B1F068C46804F11800FFF770FD7D
:102E3000201DFFF76DFDE06A2A6908FA00F11143D1
:102E4000296100EB800109EB8100211DFFF798FD4E
:102E5000E06A2968C96A8842E2D3C5F81C80DFE7C6
:102E60000CB1FFF7AFFCAC6944B14646FFF756FF23
:102E700000B1EE61641EF9D10020A861E86938B1A3
:102E80000849012738070860BFF34F8FBFF36F8FE2
:102E9000FFF7A2FD3846BDE8F0870000680000207B
:102EA000180E002004ED00E0042F0008011C0008AB
:102EB0000000000000000000800000000000000092
:102EC000000000000102030406070809A0860100B3
:102ED000400D0300801A060000350C0040420F0030
:102EE00080841E0000093D0000127A000024F400D6
:102EF00000366E010048E801006CDC0200000000B2
:102F00000102030464656661756C745461736B003F
:102F1000302F000800000020A8000000A8220008B0
:102F2000D82F0008A8000020B0110000B822000827
:102F300000000000D7190008BD190008311A000868
:102F4000000000000F1A0008000000000000000050
:102F50000000000000000000000000000000000071
:102F600000000000451A00080000000000000000FA
:102F700000093D000000000000000000000000000B
:102F80000000000000000000000000000000000041
:102F9000AAAAAAAA00000000000000000000000089
:102FA0000000000000000000000000000000000021
:102FB0000000000000000000000000000000000011
:102FC0000000000000000000000000000000000001
:082FD0000000000000000000F9
:040000050800018965
:00000001FF
