:020000040800F2
:100000005811002059020008FB0D0008F70D0008E8
:10001000F90D0008C50200085D100008000000008E
:100020000000000000000000000000009D0100082A
:10003000C702000800000000F1010008CD0E000812
:1000400073020008730200087302000873020008BC
:1000500073020008730200087302000873020008AC
:10006000730200087302000873020008730200089C
:10007000730200087302000873020008730200088C
:10008000730200087302000873020008730200087C
:10009000730200087302000873020008730200086C
:1000A0007302000873020008910F00087302000831
:1000B000730200087302000873020008730200084C
:1000C000730200087302000873020008730200083C
:1000D000730200087302000873020008730200082C
:1000E000730200087302000873020008730200081C
:1000F000730200087302000873020008730200080C
:1001000073020008730200087302000873020008FB
:1001100073020008730200087302000873020008EB
:1001200073020008730200087302000873020008DB
:1001300073020008730200087302000873020008CB
:1001400073020008730200087302000873020008BB
:1001500073020008730200087302000873020008AB
:10016000730200087302000873020008730200089B
:100170007302000873020008000000000000000085
:100180007302000873020008DFF80CD000F088F852
:10019000004800477D100008581100202B4B1968BB
:1001A0000868B0E8F04F80F30988BFF36F8F4FF015
:1001B000000080F3118870470000000006480068C6
:1001C000006880F3088862B661B6BFF34F8FBFF353
:1001D0006F8F00DF00BF00BF08ED00E0DFF80C000C
:1001E000016841F470010160704700BF88ED00E0D4
:1001F000EFF30980BFF36F8F144B1A681EF0100FD6
:1002000008BF20ED108A20E9F04F106008B44FF0CD
:10021000500080F31188BFF34F8FBFF36F8F01F051
:1002200031FA4FF0000080F3118808BC19680868A3
:10023000B0E8F04F1EF0100F08BFB0EC108A80F34A
:100240000988BFF36F8F704700BF00BF30000020E8
:10025000EFF30580704700000648804706480047D6
:10026000FEE7FEE7FEE7FEE7FEE7FEE7FEE7FEE766
:10027000FEE7FEE74D0F00088901000840EA010390
:100280009B0703D009E008C9121F08C0042AFAD24C
:1002900003E011F8013B00F8013B521EF9D2704710
:1002A000064C074D06E0E06840F0010394E80700C3
:1002B00098471034AC42F6D3FFF76AFF541A00088F
:1002C000741A0008FEE770470069084000D001205A
:1002D00070470AB1816170478162704701480068C8
:1002E000704700000400002002480168491C0160BA
:1002F000704700000400002010B5032000F0AEF8A5
:10030000002000F005F800F03DF8002010BD0000CE
:1003100000B5014687B000221A2000F07FF81A20AD
:1003200000F070F81348016E41F480210166006E00
:1003300005A900F480200690684600F065F900F0F9
:1003400089F90D490D4AB0FBF1F10D48491E0260D3
:10035000416040F2E7320021C0E90321816000F0F2
:1003600044FC10B1012007B000BD054800F05AFC64
:10037000F9E700000010024040420F000048014031
:100380006C0000201E4808B5016E41F001010166B5
:10039000016E01F001010091816D41F08051816594
:1003A000806D00F080500090032000F057F800228C
:1003B00011466FF00B0000F031F8002211466FF08B
:1003C0000A0000F02BF8002211466FF0090000F03F
:1003D00025F800221146501F00F020F80022114697
:1003E000101F00F01BF800220F21901E00F016F8DD
:1003F00000220F21BDE80840501E00F00FB8000099
:100400000010024000F01F020121914040098000CD
:1004100000F1E020C0F8001170470000F0B40E4B6E
:100420001B680C46C3F30223C3F10705042D00D952
:100430000425191D072901D2002300E0DB1E012637
:1004400006FA05F1491E214099409E40761E16404D
:100450003143F0BC00F0D2BC0CED00E0064900F0E6
:10046000070208684FF6FF03184040EA0220034ADB
:1004700010430860704700000CED00E00000FA0532
:100480001549B0F5007F0868C0F3412009D0022863
:1004900005D0086820F4C06040F480600860002047
:1004A00070470128FBD0086820F4C06040F4007059
:1004B00008600A480A4A0068B0FBF2F03222504352
:1004C00000E0401E10B14A695205FAD4486940055F
:1004D000E5D50320704700000070004008000020B0
:1004E00040420F000248006800F4C06070470000FE
:1004F000007000402DE9F0470F46050058D03E4EF1
:10050000306800F00700B84209D2306820F00700D8
:1005100038433060306800F00700B84248D128788E
:10052000364CC0072CD06868032811D0022812D09E
:10053000216898B1490500293ADAA16821F0030140
:100540000143A160FFF7CAFE804641F2883910E0FE
:1005500021688901EFE721688903ECE78907EAE769
:10056000FFF7BCFEA0EB0801494502D90320BDE816
:10057000F087A068696800F00C00B0EB810FEFD144
:100580002878800705D5A068A96820F0F000084306
:10059000A060306800F00700B8420BD9306820F046
:1005A000070038433060306800F00700B84201D0DF
:1005B0000120DCE72878400705D5A068E96820F429
:1005C000E0600843A0602878000706D5A068296984
:1005D00020F4605040EAC100A06000F04BF8A16830
:1005E000074AC1F30311515CC84006490860002066
:1005F000FFF78EFE0020BAE7002002400010024004
:10060000001A0008080000200F2202600C4A9368BC
:1006100003F003034360936803F0F003836093687F
:1006200003F4E063C36092684FF4E06303EAD2022C
:1006300002610448006800F007000860704700008D
:10064000001002400020024001480068704700008E
:10065000080000200448054900688968044AC1F37D
:10066000C221515CC84070470800002000100240C1
:10067000401A000830B52D49002318468A682C4CD2
:1006800012F00C0F4FEA640514D08A68C2F381029D
:10069000032A04D1CA6802F00302012A0AD08A6838
:1006A000C2F38102012A19D08A68C2F38102022AA8
:1006B00016D016E00A68120704D4D1F89420C2F3C9
:1006C000032202E00A68C2F303121A4B53F82230E5
:1006D0008A6812F00C0F04D1184602E0204600E0B0
:1006E00028468A68C2F38102032A1DD1C868CA68F5
:1006F00000F00300C2F30212521C022804D00328A7
:1007000005D0B3FBF2F004E0B4FBF2F001E0B5FB7E
:10071000F2F0CA68C968C2F306225043C1F34161CE
:10072000491C4900B0FBF1F030BD00000010024050
:100730000024F400101A00082DE9F84304007DD0CD
:100740002078FF4DC0065DD5A86810F00C0F0AD0C8
:10075000A0690028286873D040F001002860FFF7E6
:10076000BDFD064655E02868800702D5A06900282F
:10077000E5D0216A2868000703D5286800F0F0005A
:1007800004E0D5F89400F02202EA1010814216D954
:10079000084600F043FB002850D1286840F00800CC
:1007A00028602868216A20F0F00008432860686803
:1007B000E16920F47F4040EA0120686015E0286884
:1007C00040F0080028602868216A20F0F000084303
:1007D00028606868E16920F47F4040EA0120686091
:1007E000206A00F01BFB0028D6D1FFF743FFA96861
:1007F000D44AC1F30311515CC840D34908600020BA
:10080000FFF786FD2CE000BFFFF768FD801B022884
:100810007ED828688007F7D5286840F0080028604F
:100820002868216A20F0F000084328606868E169C0
:1008300020F47F4040EA0120686011E0B2E0FFE769
:1008400020F001002860FFF749FD064605E000BFE3
:10085000FFF744FD801B0228DAD828688007F7D408
:100860002078C00748D0A868C0F3810002281DD0B6
:10087000A868C0F38100032803D1E868C04380075B
:1008800014D06068B0F5803F17D0B0F5A02F28686D
:1008900017D020F480302860286820F48020286059
:1008A0006068E0B1FFF71AFD064614E0286880038F
:1008B00022D56068002875D01EE0286840F480309A
:1008C000EDE740F480202860F7E700BFFFF706FD62
:1008D000801B64289CD828688003F7D50CE0FFF7BC
:1008E000FDFC064605E000BFFFF7F8FC801B64280E
:1008F0008ED828688003F7D42078800742D5A8686E
:10090000C0F38100012816D0A868C0F3810000E080
:10091000A9E0032804D1E86800F0030002280AD007
:10092000E068002828681DD040F480702860FFF738
:10093000D5FC06460BE0286840050BD5E06800288A
:10094000B9D007E0FFF7CAFC801B022884D82868CA
:100950004005F7D56868217C20F0F85040EA016036
:1009600068600FE020F480702860FFF7B7FC06464F
:1009700005E000BFFFF7B2FC801B022873D828688F
:100980004005F7D42078000729D560690028D5F8FC
:10099000940013D040F00100C5F89400FFF79EFCCE
:1009A000064606E0FBE000BFFFF798FC801B02282C
:1009B00059D8D5F894008007F6D510E020F0010052
:1009C000C5F89400FFF78AFC064604E0FFF786FCB2
:1009D000801B022847D8D5F894008007F6D42078E9
:1009E000400763D5A86D0026C00008D4A86D40F06C
:1009F0008050A865A86D012600F0805000905348F3
:100A00000168C90511D40168804641F48071016014
:100A1000FFF764FC074604E0FFF760FCC01B0228F8
:100A200021D8D8F80000C005F6D5A068012815D057
:100A30000528D5F8900017D020F00100C5F89000E7
:100A4000D5F8900020F00400C5F89000A06841F2AD
:100A50008838C8B1FFF742FC074610E0D5F890008F
:100A600040F00100F0E777E040F00400C5F89000A6
:100A7000F4E700BFFFF732FCC11B41456CD8D5F845
:100A800090008007F6D50CE0FFF728FC074604E04D
:100A9000FFF724FCC11B414579D8D5F890008007A9
:100AA000F6D41EB1A86D20F08050A865A06AE0B30E
:100AB000A968C1F38101032972D00228286820F0B7
:100AC0008070286011D02868000106D42868800052
:100AD00003D4E86820F00300E860E8681C49084097
:100AE000E860FFF7FBFB044654E0FFF7F7FB064620
:100AF00005E000BFFFF7F2FB801B022847D82868FB
:100B00008001F7D4206BE16A000110380843616B63
:100B1000A26B0902120941EA42410843A18F0D4A22
:100B2000490802EB4151084300E036E094F84010D8
:100B30004908120102EB41610843E86028680CE0B3
:100B400000100240001A0008080000200070004059
:100B5000FFFFEEFE0000E0FF19E040F0807028602B
:100B6000E86840F08070E860FFF7B8FB044604E0F6
:100B7000FFF7B4FB001B022809D828688001F7D5CD
:100B80000BE000BFFFF7AAFB001B022802D90320DD
:100B9000BDE8F88328688001F4D40020F8E7FFE777
:100BA0000120F5E74FF0E0210428086903D020F088
:100BB00004000861704740F00400FAE710B5401ED9
:100BC000B0F1807F01D3012010BD4FF0E0246061BF
:100BD0000F21601700F012F90020A06107202061AA
:100BE000002010BD70477047704710B5040003D057
:100BF00094F83D0010B107E0012010BD002084F8FA
:100C00003C00204600F00CF8022084F83D00211D35
:100C1000206800F0C3F9012084F83D00002010BDD9
:100C2000704700000168CA6842F00102CA600068AB
:100C3000826807490A40062A08D082680A40B2F54D
:100C4000803F03D0016841F001010160002070473E
:100C500007000100704770B50446006801694FF055
:100C60000005C943890715D4C168C943890711D450
:100C7000E91E0161012020772068806980072046F5
:100C800002D0FFF7E7FF04E000F0A7F8204600F0ED
:100C9000A5F8257720680169C943490717D4C168B9
:100CA000C943490713D46FF0040101610220207782
:100CB0002068806910F4407F204602D0FFF7CAFF09
:100CC00004E000F08AF8204600F088F825772068D4
:100CD0000169C943090716D4C168C943090712D479
:100CE0006FF008010161042020772068C069800747
:100CF000204602D0FFF7AEFF04E000F06EF8204679
:100D000000F06CF8257720680169C943C90617D43B
:100D1000C168C943C90613D46FF0100101610820EE
:100D200020772068C06910F4407F204602D0FFF78A
:100D300091FF04E000F051F8204600F04FF82577CD
:100D400020680169C943C90708D1C168C943C907F7
:100D500004D1891E0161204600F042F82068016933
:100D6000C943090609D4C168C943090605D46FF00F
:100D7000800101612046FFF736FF20680169C94301
:100D8000C90509D4C168C943090605D46FF4807147
:100D900001612046FFF726FF20680169C943490623
:100DA00009D4C168C943490605D46FF04001016107
:100DB000204600F01FF820680169C94389060BD45A
:100DC000C168C943890607D46FF02001016120463C
:100DD000BDE87040FFF708BF70BD70477047000066
:100DE00000680349884201D1FFF77EBA70470000CE
:100DF000004801407047FEE7FEE770470907090E0B
:100E0000002806DA00F00F0000F1E02080F8141D41
:100E1000704700F1E02080F800147047F8B51C4DD1
:100E200006460024A86DC00002D5FFF75BFB0DE06D
:100E3000A86D40F08050A865A86D00F0805000902B
:100E4000FFF750FBA96D21F08051A965B0F5007F37
:100E500004D0802E07D94FF003040AE0802E08D971
:100E6000A02E01D804E001D1022402E0702E00D1AE
:100E700001240848016821F007012143016000684E
:100E800000F00700A04201D00120F8BD0020F8BD0D
:100E9000001002400020024070B50122094D940369
:100EA00021462846FFF715FA61100748FFF70CFAAC
:100EB00030B1002221462846BDE87040FFF709BA4C
:100EC0000122F7E7000400480008004800F0F9B8E4
:100ED00010B596B0102000900120002460210690EB
:100EE000CDE907410221CDE90A100C9028200D9090
:100EF0000720CDE90E0168461091FFF71DFC00B1F7
:100F0000FEE70F2011900320CDE912041494042170
:100F100011A81594FFF7EEFA00B1FEE74FF4007048
:100F2000FFF7AEFA00B1FEE7FFF78EFB4FF47A71E0
:100F3000B0FBF1F0FFF742FE0420FFF733FE002282
:100F40000F21501EFFF76AFA16B010BD0D48016858
:100F500041F4700101600C48016841F00101016039
:100F6000002181600268094B1A4002608214C2604D
:100F7000026822F48022026081610249C003803944
:100F80000860704788ED00E000100240FFFFF6EABD
:100F90000148FFF760BE00006C0000202DE9F0471B
:100FA0000268264B264D274E274F284C4FF0804A8B
:100FB000984209D0504507D0A84205D0B04203D08E
:100FC000B84201D0A04204D122F0700C4A6842EA33
:100FD0000C02DFF87CC0DFF87C80DFF87C90984260
:100FE0000FD050450DD0A8420BD0B04209D0B84226
:100FF00007D0A04205D0604503D0404501D0484508
:1010000003D122F44075CA682A434D6922F0800258
:101010002A4302608A68C2620A688262984207D0E4
:10102000A04205D0604503D0404501D0484501D1DC
:101030000969016301214161BDE8F087002C01408D
:101040000004004000080040000C00400034014053
:10105000004001400044014000480140FEE702E03A
:1010600008C8121F08C1002AFAD170477047002033
:1010700001E001C1121F002AFBD1704786B0FFF7C3
:101080003BF9FFF725FF142206496846FFF7F6F8FB
:101090000021684600F01FF80349086000F00CF8D2
:1010A000FEE70000EC1900080000002001460020C7
:1010B000842900D0C81C704710B500F0A7FA0020A2
:1010C00010BD10B500F0BEFB012803D0BDE81040F4
:1010D00000F076BB10BD3EB504460D46B0F90800E1
:1010E000FFF7E4FF02A9CDE90001208A2B4682B276
:1010F000D4E9001000F07AFB012801D000203EBDA9
:1011000002983EBD2DE9F041054600F00DFA2E4C47
:10111000A068401CA06020682C4F10B1606940B3EB
:101120002DE02560A068012829D1002606EB860065
:1011300007EB800000F0DEF9761C072EF6D323487B
:101140008C3000F0D7F92148A03000F0D3F91F48C7
:10115000B43000F0CFF91D48C83000F0CBF91B487F
:10116000DC3000F0C7F919488C3060631430A0639C
:1011700005E02068E96AC06A884200D82560606A94
:10118000401C6062E96A01202269884010432061A6
:1011900001EB810007EB8000291D00F0B9F900F098
:1011A000E3F9606900280CD02068E96AC06A8842C7
:1011B00007D207494FF080500860BFF34F8FBFF34D
:1011C0006F8FBDE8F081000030000020640C00202B
:1011D00004ED00E070B5114E114C17E000F04AFA32
:1011E0003068B8B100F0A0FB00F09EF9F068C56867
:1011F000281D00F06DF9A068401EA0606068401EC8
:10120000606000F0B1F9284600F00CF86068002832
:10121000E4D170BD00F088FBF8E700002C0D002041
:101220003000002010B50446006B00F0B1F92046F4
:10123000BDE8104000F0ACB90F4840F6B8314207A5
:1012400005D0C01D0C4A20F00700821A891A0B4AEB
:1012500000230144C2E900030839103A21F00701D4
:1012600011604B600B600B1AC0E9001393604FF0E4
:1012700000405360D0607047AC0000201C0000208C
:10128000074C4FF08056074DFFF7A4FF2068012858
:10129000FAD92E60BFF34F8FBFF36F8FF4E70000D2
:1012A000640C002004ED00E02DE9F0479A46DDE9EA
:1012B000098481466FF00303206B03EB8202104424
:1012C000089D20F00706700707D0502080F3118892
:1012D000BFF34F8FBFF36F8FFEE723180A5C83F8CD
:1012E00034200A5C12B1401C1028F6D3002784F881
:1012F0004370072D00D30625E562C4E91157201D70
:1013000000F003F904F1180000F0FFF82461C5F1C2
:1013100007006462A061E76484F850705246494651
:10132000304600F0BFF82060B8F1000F01D0C8F8D7
:101330000040BDE8F087000030B5114900E01146DB
:101340000A688242FBD34B685C18844203D1406830
:1013500018444860084643681C18944209D1084C58
:10136000103C2468A24209D052681A4442600A68BC
:1013700012680260814200D0086030BD0460F9E765
:101380001C0000200648416B096829B1416BC968FF
:10139000C9684968816270474FF0FF31FAE7000081
:1013A0003000002008484068401C4FF0500080F397
:1013B000118804D0BFF34F8FBFF36F8FFEE7BFF3E9
:1013C0004F8FBFF36F8FFEE7240000202DE9F0411F
:1013D0000546002700F04EF9314E306808B9FFF796
:1013E0002BFFF06805424BD1C5B3083568070ED016
:1013F00005F00700C0F108000544680707D0502039
:1014000080F31188BFF34F8FBFF36F8FFEE72DB3CB
:101410007068854234D82248103001460C6801E0DB
:1014200020460C466168A94202D221680029F7D102
:1014300031688C4224D007682168016060680837F1
:10144000411B10290FD96019420708D0502080F3A2
:101450001188BFF34F8FBFF36F8FFEE710E041603D
:101460006560FFF769FF61687068401A7060B26874
:10147000904200D2B060F06801430020C4E900014E
:1014800000F052FA780707D0502080F31188BFF39C
:101490004F8FBFF36F8FFEE73846BDE8F081000045
:1014A0000C00002010B5031F4FF080741C601B1F40
:1014B00021F001011960191F044B0B6014390A60F7
:1014C000091F6FF0020244380A6010BDA51300081E
:1014D000D0E9013201699A60D0E901235A604A6873
:1014E000824201D182684A60002202610868401E7F
:1014F0000860704700F108014FF0FF32C0E90112A7
:10150000C1600161002101607047002101617047E5
:1015100042684A6093688B60936859609160086183
:101520000168491C01607047502080F31188BFF3A7
:101530004F8FBFF36F8F0A494868401C48600128ED
:101540000CD10848006810F0FF0F07D0502080F33E
:101550001188BFF34F8FBFF36F8FFEE77047000016
:101560002400002004ED00E00849486828B1401E2E
:10157000486001D180F311887047502080F31188B2
:10158000BFF34F8FBFF36F8FFEE7000024000020F2
:1015900070B5002827D0144DA0F108046168E868F0
:1015A000014207D1502080F31188BFF34F8FBFF362
:1015B0006F8FFEE722683AB1502080F31188BFF3A5
:1015C0004F8FBFF36F8FFEE78143616000F052F8E9
:1015D00060686968084468602046FFF7ADFEBDE8B2
:1015E000704000F0A1B970BD0C00002006484FF417
:1015F0007A710068B0FBF1F14FF0E020491E4161C3
:101600000721016170470000080000201CB5154843
:101610000024CDE900402346802213A1144800F0A5
:10162000E5F8012809D0401C1AD1502080F3118818
:10163000BFF34F8FBFF36F8FFEE7502080F3118809
:10164000BFF34F8FBFF36F8F06484FF0FF312C3839
:10165000816201214161C460BDE81C4000F040B8D6
:101660001CBD00005C00002049444C450000000007
:10167000811200080248016B491C01637047000099
:10168000300000201448016B11B10121C161704785
:101690000021C1610169B1FA81F1C1F11F0101EBC2
:1016A00081020E4951F822306BB101EB820101F148
:1016B00008034A6852684A609A4201D152684A60F7
:1016C000D16801607047502080F31188BFF34F8FBD
:1016D000BFF36F8FFEE7000030000020640C002095
:1016E0001CB532480168324A914207D1502080F33C
:1016F0001188BFF34F8FBFF36F8FFEE700682C494F
:10170000491E884207D1502080F31188BFF34F8FC4
:10171000BFF36F8FFEE7274908780190FF2008701C
:1017200008788DF800009DF800009DF8002000F07A
:10173000F000904207D0502080F31188BFF34F8F04
:10174000BFF36F8FFEE79DF800001B4A00F05000CA
:1017500010700720906005E09DF800305B008DF868
:101760000030401E9DF800301B06F5D4000200F446
:10177000E0609060019808700C482030016841F4E6
:1017800070010160016841F070410160FFF72EFFB8
:1017900000205060FEF722FD0848016841F04041FA
:1017A0000160FEF70BFD00201CBD000000ED00E015
:1017B00071C20F4100E400E02400002034EF00E09B
:1017C00010B5502080F31188BFF34F8FBFF36F8F98
:1017D00000F046F818B104494FF08050086000202E
:1017E00080F3118810BD000004ED00E02DE9FF5FDB
:1017F0008346DDE90E87994616468A469000FFF734
:10180000E5FD05001AD05420FFF7E0FD040012D0DA
:1018100025630021CDE90241CDE900874B463246E0
:1018200051465846FFF740FD2046FFF76BFC01206C
:1018300004B0BDE8F09F2846FFF7AAFE4FF0FF3046
:10184000F6E700000548416919B1006B18B10020A6
:1018500070470120704702207047000030000020D0
:101860002DE9F0412E4C0027206B40B1A069401CAF
:10187000A061E06900B101273846BDE8F081E66863
:10188000761CE66013D1606B006838B1502080F39D
:101890001188BFF34F8FBFF36F8FFEE7606BA16BB3
:1018A0006163A063206A401C2062FFF76BFDA06AA1
:1018B000DFF87080864209D3606B006880B1606B8E
:1018C000C068C568686886420DD2A0622068C06A98
:1018D00000EB800158F821000128CAD90127C8E788
:1018E0004FF0FF30F1E7281DFFF7F2FDA86A18B1AD
:1018F00005F11800FFF7ECFDE86A0121226981403B
:101900001143216100EB800108EB8100291DFFF7E5
:10191000FFFDE86A2168C96A8842CDD30127CBE779
:1019200030000020640C00202DE9F0472C4D0024ED
:101930002746286B38B1FFF7F7FD286B401E286358
:10194000286B40B146E0502080F31188BFF34F8FE1
:10195000BFF36F8FFEE7A968224E0120D1B3A6F135
:10196000B40980463068E8B1F068C46804F1180032
:10197000FFF7AEFD201DFFF7ABFDE06A2A6908FA0C
:1019800000F11143296100EB800109EB8100211D69
:10199000FFF7BEFDE06A2968C96A8842E2D3C5F84C
:1019A0001C80DFE70CB1FFF7EDFCAC6944B14646A3
:1019B000FFF756FF00B1EE61641EF9D10020A86167
:1019C000E86938B10849012738070860BFF34F8F2D
:1019D000BFF36F8FFFF7C8FD3846BDE8F087000002
:1019E00030000020180D002004ED00E0481A000827
:1019F000990E0008000000000000000080000000B8
:101A000000000000000000000102030406070809AE
:101A1000A0860100400D0300801A060000350C006E
:101A200040420F0080841E0000093D0000127A0031
:101A30000024F40000366E010048E801006CDC026E
:101A40000000000001020304427574746F6E54615B
:101A5000736B0000741A0008000000206C00000086
:101A60005E100008E01A00086C000020EC10000076
:101A70006E100008000000000000000000093D009A
:101A80000000000000000000000000000000000056
:101A9000000000000000000000000000AAAAAAAA9E
:101AA0000000000000000000000000000000000036
:101AB0000000000000000000000000000000000026
:101AC0000000000000000000000000000000000016
:101AD0000000000000000000000000000000000006
:040000050800018965
:00000001FF
